{"contracts/SimpleStablePayWithdrawal.sol":{"SimpleStablePayWithdrawal":{"abi":[{"inputs":[{"internalType":"address","name":"_custodyWallet","type":"address"},{"internalType":"uint256","name":"_withdrawalFee","type":"uint256"}],"stateMutability":"nonpayable","type":"constructor"},{"anonymous":false,"inputs":[{"indexed":true,"internalType":"address","name":"user","type":"address"},{"indexed":true,"internalType":"address","name":"token","type":"address"},{"indexed":false,"internalType":"uint256","name":"amount","type":"uint256"}],"name":"ConsentGranted","type":"event"},{"anonymous":false,"inputs":[{"indexed":false,"internalType":"address","name":"oldWallet","type":"address"},{"indexed":false,"internalType":"address","name":"newWallet","type":"address"}],"name":"CustodyWalletUpdated","type":"event"},{"anonymous":false,"inputs":[{"indexed":true,"internalType":"bytes32","name":"transactionId","type":"bytes32"},{"indexed":true,"internalType":"address","name":"user","type":"address"},{"indexed":false,"internalType":"uint256","name":"amountTransferred","type":"uint256"},{"indexed":false,"internalType":"uint256","name":"feeDeducted","type":"uint256"}],"name":"WithdrawalProcessed","type":"event"},{"anonymous":false,"inputs":[{"indexed":true,"internalType":"bytes32","name":"transactionId","type":"bytes32"},{"indexed":true,"internalType":"address","name":"user","type":"address"},{"indexed":true,"internalType":"address","name":"token","type":"address"},{"indexed":false,"internalType":"uint256","name":"amount","type":"uint256"},{"indexed":false,"internalType":"string","name":"kycId","type":"string"},{"indexed":false,"internalType":"string","name":"bankAccount","type":"string"}],"name":"WithdrawalRequested","type":"event"},{"stateMutability":"payable","type":"fallback"},{"inputs":[],"name":"MAX_FEE","outputs":[{"internalType":"uint256","name":"","type":"uint256"}],"stateMutability":"view","type":"function"},{"inputs":[{"internalType":"uint256","name":"","type":"uint256"}],"name":"allWithdrawalIds","outputs":[{"internalType":"bytes32","name":"","type":"bytes32"}],"stateMutability":"view","type":"function"},{"inputs":[{"internalType":"address","name":"operator","type":"address"}],"name":"authorizeOperator","outputs":[],"stateMutability":"nonpayable","type":"function"},{"inputs":[{"internalType":"address","name":"","type":"address"}],"name":"authorizedOperators","outputs":[{"internalType":"bool","name":"","type":"bool"}],"stateMutability":"view","type":"function"},{"inputs":[],"name":"custodyWallet","outputs":[{"internalType":"address","name":"","type":"address"}],"stateMutability":"view","type":"function"},{"inputs":[{"internalType":"address","name":"token","type":"address"},{"internalType":"uint256","name":"amount","type":"uint256"}],"name":"emergencyWithdraw","outputs":[],"stateMutability":"nonpayable","type":"function"},{"inputs":[{"internalType":"address","name":"token","type":"address"},{"internalType":"uint256","name":"amount","type":"uint256"},{"internalType":"string","name":"kycId","type":"string"},{"internalType":"string","name":"bankAccount","type":"string"}],"name":"executeDirectTransfer","outputs":[{"internalType":"bytes32","name":"","type":"bytes32"}],"stateMutability":"payable","type":"function"},{"inputs":[],"name":"getAllWithdrawals","outputs":[{"internalType":"bytes32[]","name":"","type":"bytes32[]"}],"stateMutability":"view","type":"function"},{"inputs":[{"internalType":"address","name":"user","type":"address"}],"name":"getUserConsent","outputs":[{"components":[{"internalType":"address","name":"user","type":"address"},{"internalType":"address","name":"token","type":"address"},{"internalType":"uint256","name":"amount","type":"uint256"},{"internalType":"uint256","name":"timestamp","type":"uint256"},{"internalType":"bool","name":"granted","type":"bool"}],"internalType":"struct SimpleStablePayWithdrawal.UserConsent","name":"","type":"tuple"}],"stateMutability":"view","type":"function"},{"inputs":[{"internalType":"bytes32","name":"transactionId","type":"bytes32"}],"name":"getWithdrawalRequest","outputs":[{"components":[{"internalType":"address","name":"user","type":"address"},{"internalType":"address","name":"token","type":"address"},{"internalType":"uint256","name":"amount","type":"uint256"},{"internalType":"string","name":"kycId","type":"string"},{"internalType":"string","name":"bankAccount","type":"string"},{"internalType":"bool","name":"processed","type":"bool"},{"internalType":"uint256","name":"timestamp","type":"uint256"},{"internalType":"bytes32","name":"transactionId","type":"bytes32"}],"internalType":"struct SimpleStablePayWithdrawal.WithdrawalRequest","name":"","type":"tuple"}],"stateMutability":"view","type":"function"},{"inputs":[{"internalType":"address","name":"token","type":"address"},{"internalType":"uint256","name":"amount","type":"uint256"}],"name":"grantConsent","outputs":[],"stateMutability":"nonpayable","type":"function"},{"inputs":[{"internalType":"address","name":"user","type":"address"},{"internalType":"address","name":"token","type":"address"},{"internalType":"uint256","name":"amount","type":"uint256"}],"name":"hasValidConsent","outputs":[{"internalType":"bool","name":"","type":"bool"}],"stateMutability":"view","type":"function"},{"inputs":[],"name":"owner","outputs":[{"internalType":"address","name":"","type":"address"}],"stateMutability":"view","type":"function"},{"inputs":[],"name":"pause","outputs":[],"stateMutability":"nonpayable","type":"function"},{"inputs":[],"name":"paused","outputs":[{"internalType":"bool","name":"","type":"bool"}],"stateMutability":"view","type":"function"},{"inputs":[{"internalType":"address","name":"token","type":"address"},{"internalType":"uint256","name":"amount","type":"uint256"},{"internalType":"string","name":"kycId","type":"string"},{"internalType":"string","name":"bankAccount","type":"string"}],"name":"requestWithdrawal","outputs":[{"internalType":"bytes32","name":"","type":"bytes32"}],"stateMutability":"nonpayable","type":"function"},{"inputs":[],"name":"revokeConsent","outputs":[],"stateMutability":"nonpayable","type":"function"},{"inputs":[{"internalType":"address","name":"operator","type":"address"}],"name":"revokeOperator","outputs":[],"stateMutability":"nonpayable","type":"function"},{"inputs":[{"internalType":"address","name":"_custodyWallet","type":"address"}],"name":"setCustodyWallet","outputs":[],"stateMutability":"nonpayable","type":"function"},{"inputs":[{"internalType":"uint256","name":"_fee","type":"uint256"}],"name":"setWithdrawalFee","outputs":[],"stateMutability":"nonpayable","type":"function"},{"inputs":[],"name":"unpause","outputs":[],"stateMutability":"nonpayable","type":"function"},{"inputs":[{"internalType":"address","name":"","type":"address"}],"name":"userConsents","outputs":[{"internalType":"address","name":"user","type":"address"},{"internalType":"address","name":"token","type":"address"},{"internalType":"uint256","name":"amount","type":"uint256"},{"internalType":"uint256","name":"timestamp","type":"uint256"},{"internalType":"bool","name":"granted","type":"bool"}],"stateMutability":"view","type":"function"},{"inputs":[],"name":"withdrawalFee","outputs":[{"internalType":"uint256","name":"","type":"uint256"}],"stateMutability":"view","type":"function"},{"inputs":[{"internalType":"bytes32","name":"","type":"bytes32"}],"name":"withdrawalRequests","outputs":[{"internalType":"address","name":"user","type":"address"},{"internalType":"address","name":"token","type":"address"},{"internalType":"uint256","name":"amount","type":"uint256"},{"internalType":"string","name":"kycId","type":"string"},{"internalType":"string","name":"bankAccount","type":"string"},{"internalType":"bool","name":"processed","type":"bool"},{"internalType":"uint256","name":"timestamp","type":"uint256"},{"internalType":"bytes32","name":"transactionId","type":"bytes32"}],"stateMutability":"view","type":"function"},{"stateMutability":"payable","type":"receive"}],"evm":{"bytecode":{"linkReferences":{},"object":"60806040526006805460ff191690553480156200001b57600080fd5b506040516200233b3803806200233b8339810160408190526200003e916200012f565b6001600160a01b0382166200009a5760405162461bcd60e51b815260206004820152601660248201527f496e76616c696420637573746f64792077616c6c65740000000000000000000060448201526064015b60405180910390fd5b6101f4811115620000dd5760405162461bcd60e51b815260206004820152600c60248201526b08ccaca40e8dede40d0d2ced60a31b604482015260640162000091565b60038054336001600160a01b03199182168117909255600480549091166001600160a01b0394909416939093179092556005556000908152600260205260409020805460ff191660011790556200016b565b600080604083850312156200014357600080fd5b82516001600160a01b03811681146200015b57600080fd5b6020939093015192949293505050565b6121c0806200017b6000396000f3fe6080604052600436106101435760003560e01c80638da5cb5b116100b0578063b9f7ce951161006c578063b9f7ce95146104ab578063bc063e1a146104cb578063c7821ade146104e1578063e3453c4e146104f4578063fad8b32a14610583578063ff4c4d54146105a357005b80638da5cb5b146103d357806391440da21461040b578063959b8c3f1461042b57806395ccea671461044b5780639d15e77f1461046b578063ac1e50251461048b57005b80633f4ba83a116100ff5780633f4ba83a1461032b57806347c88bbe146103405780635c975abb1461036057806380cc50941461037a5780638456cb59146103a85780638bc7e8c4146103bd57005b806302cafe751461014c578063124b82a514610177578063181d989b146101ab5780632980a6f5146101eb5780632e5b2b38146102de5780633e7d48ab146102fe57005b3661014a57005b005b34801561015857600080fd5b506101616105fb565b60405161016e9190611b75565b60405180910390f35b34801561018357600080fd5b50610197610192366004611bb9565b610653565b60405161016e989796959493929190611c18565b3480156101b757600080fd5b506101db6101c6366004611c9d565b60026020526000908152604090205460ff1681565b604051901515815260200161016e565b3480156101f757600080fd5b50610291610206366004611c9d565b6040805160a081018252600080825260208201819052918101829052606081018290526080810191909152506001600160a01b03908116600090815260016020818152604092839020835160a08101855281548616815292810154909416908201526002830154918101919091526003820154606082015260049091015460ff161515608082015290565b60405161016e919081516001600160a01b03908116825260208084015190911690820152604080830151908201526060808301519082015260809182015115159181019190915260a00190565b3480156102ea57600080fd5b506101db6102f9366004611cbf565b6107b8565b34801561030a57600080fd5b5061031e610319366004611bb9565b61086e565b60405161016e9190611cfb565b34801561033757600080fd5b5061014a610a45565b34801561034c57600080fd5b5061014a61035b366004611c9d565b610a84565b34801561036c57600080fd5b506006546101db9060ff1681565b34801561038657600080fd5b5061039a610395366004611bb9565b610b56565b60405190815260200161016e565b3480156103b457600080fd5b5061014a610b77565b3480156103c957600080fd5b5061039a60055481565b3480156103df57600080fd5b506003546103f3906001600160a01b031681565b6040516001600160a01b03909116815260200161016e565b34801561041757600080fd5b5061039a610426366004611dec565b610bb0565b34801561043757600080fd5b5061014a610446366004611c9d565b611065565b34801561045757600080fd5b5061014a610466366004611e76565b6110fc565b34801561047757600080fd5b5061014a610486366004611e76565b61129b565b34801561049757600080fd5b5061014a6104a6366004611bb9565b6113a7565b3480156104b757600080fd5b506004546103f3906001600160a01b031681565b3480156104d757600080fd5b5061039a6101f481565b61039a6104ef366004611dec565b611417565b34801561050057600080fd5b5061054e61050f366004611c9d565b6001602081905260009182526040909120805491810154600282015460038301546004909301546001600160a01b039485169490921692909160ff1685565b604080516001600160a01b0396871681529590941660208601529284019190915260608301521515608082015260a00161016e565b34801561058f57600080fd5b5061014a61059e366004611c9d565b611b2a565b3480156105af57600080fd5b5061014a336000908152600160208190526040822080546001600160a01b031990811682559181018054909216909155600281018290556003810191909155600401805460ff19169055565b6060600780548060200260200160405190810160405280929190818152602001828054801561064957602002820191906000526020600020905b815481526020019060010190808311610635575b5050505050905090565b60006020819052908152604090208054600182015460028301546003840180546001600160a01b03948516959490931693919261068f90611ea0565b80601f01602080910402602001604051908101604052809291908181526020018280546106bb90611ea0565b80156107085780601f106106dd57610100808354040283529160200191610708565b820191906000526020600020905b8154815290600101906020018083116106eb57829003601f168201915b50505050509080600401805461071d90611ea0565b80601f016020809104026020016040519081016040528092919081815260200182805461074990611ea0565b80156107965780601f1061076b57610100808354040283529160200191610796565b820191906000526020600020905b81548152906001019060200180831161077957829003601f168201915b5050505060058301546006840154600790940154929360ff9091169290915088565b6001600160a01b038084166000908152600160208181526040808420815160a08101835281548716815293810154909516918301919091526002840154908201526003830154606082015260049092015460ff1615801560808401819052919291906108395750836001600160a01b031681602001516001600160a01b0316145b8015610849575082816040015110155b80156108655750606081015161086190610e10611ef0565b4211155b95945050505050565b60408051610100810182526000808252602082018190529181018290526060808201819052608082015260a0810182905260c0810182905260e08101919091526000828152602081815260409182902082516101008101845281546001600160a01b0390811682526001830154169281019290925260028101549282019290925260038201805491929160608401919061090790611ea0565b80601f016020809104026020016040519081016040528092919081815260200182805461093390611ea0565b80156109805780601f1061095557610100808354040283529160200191610980565b820191906000526020600020905b81548152906001019060200180831161096357829003601f168201915b5050505050815260200160048201805461099990611ea0565b80601f01602080910402602001604051908101604052809291908181526020018280546109c590611ea0565b8015610a125780601f106109e757610100808354040283529160200191610a12565b820191906000526020600020905b8154815290600101906020018083116109f557829003601f168201915b5050509183525050600582015460ff16151560208201526006820154604082015260079091015460609091015292915050565b6003546001600160a01b03163314610a785760405162461bcd60e51b8152600401610a6f90611f09565b60405180910390fd5b6006805460ff19169055565b6003546001600160a01b03163314610aae5760405162461bcd60e51b8152600401610a6f90611f09565b6001600160a01b038116610af55760405162461bcd60e51b815260206004820152600e60248201526d125b9d985b1a59081dd85b1b195d60921b6044820152606401610a6f565b600480546001600160a01b038381166001600160a01b031983168117909355604080519190921680825260208201939093527fa9545502c426f71b85ec96f4f78bd2d87c50281e5bbe0a3b058364ff3cb989a6910160405180910390a15050565b60078181548110610b6657600080fd5b600091825260209091200154905081565b6003546001600160a01b03163314610ba15760405162461bcd60e51b8152600401610a6f90611f09565b6006805460ff19166001179055565b60085460009060ff1615610bf75760405162461bcd60e51b815260206004820152600e60248201526d1499595b9d1c985b9d0818d85b1b60921b6044820152606401610a6f565b6008805460ff1916600117905560065460ff1615610c275760405162461bcd60e51b8152600401610a6f90611f2c565b60008611610c475760405162461bcd60e51b8152600401610a6f90611f55565b83610c865760405162461bcd60e51b815260206004820152600f60248201526e12d650c81251081c995c5d5a5c9959608a1b6044820152606401610a6f565b81610ccb5760405162461bcd60e51b815260206004820152601560248201527410985b9ac81858d8dbdd5b9d081c995c5d5a5c9959605a1b6044820152606401610a6f565b610cd63388886107b8565b610d1b5760405162461bcd60e51b815260206004820152601660248201527515985b1a590818dbdb9cd95b9d081c995c5d5a5c995960521b6044820152606401610a6f565b6001600160a01b03871615610dde576040516370a0823160e01b815233600482015286906001600160a01b038916906370a0823190602401602060405180830381865afa158015610d70573d6000803e3d6000fd5b505050506040513d601f19601f82011682018060405250810190610d949190611f7d565b1015610dd95760405162461bcd60e51b8152602060048201526014602482015273496e73756666696369656e742062616c616e636560601b6044820152606401610a6f565b610e2f565b3331861115610e2f5760405162461bcd60e51b815260206004820152601860248201527f496e73756666696369656e74204554482062616c616e636500000000000000006044820152606401610a6f565b6040516bffffffffffffffffffffffff1933606090811b8216602084015289901b1660348201526048810187905242606882015243608882015260009060a80160408051601f198184030181528282528051602091820120610100840183523384526001600160a01b038c16848301528383018b90528251601f8a0183900483028101830190935288835293506060830191908990899081908401838280828437600092019190915250505090825250604080516020601f8801819004810282018101909252868152918101919087908790819084018382808284376000920182905250938552505050602080830182905242604080850191909152606093840186905285835282825291829020845181546001600160a01b03199081166001600160a01b0392831617835592860151600183018054909416911617909155908301516002820155908201516003820190610f8a9082611ffa565b5060808201516004820190610f9f9082611ffa565b5060a082015160058201805460ff191691151591909117905560c0820151600682015560e09091015160079182015580546001810182556000919091527fa66cc928b5edb82af9bd49922954155ab7b0942694bea4ce44661d9a8736c688018190556040516001600160a01b03891690339083907fcd290e3806ab7c03b4639262c346758046cc34ee8aa2d5bfc9e2e2f85cbf5d6b90611048908c908c908c908c908c906120e3565b60405180910390a46008805460ff19169055979650505050505050565b6003546001600160a01b0316331461108f5760405162461bcd60e51b8152600401610a6f90611f09565b6001600160a01b0381166110d85760405162461bcd60e51b815260206004820152601060248201526f24b73b30b634b21037b832b930ba37b960811b6044820152606401610a6f565b6001600160a01b03166000908152600260205260409020805460ff19166001179055565b6003546001600160a01b031633146111265760405162461bcd60e51b8152600401610a6f90611f09565b6001600160a01b0382166111d8576003546040516000916001600160a01b03169083908381818185875af1925050503d8060008114611181576040519150601f19603f3d011682016040523d82523d6000602084013e611186565b606091505b50509050806111d35760405162461bcd60e51b8152602060048201526019602482015278115b595c99d95b98de481dda5d1a191c985dc819985a5b1959603a1b6044820152606401610a6f565b505050565b60035460405163a9059cbb60e01b81526001600160a01b039182166004820152602481018390529083169063a9059cbb906044016020604051808303816000875af115801561122b573d6000803e3d6000fd5b505050506040513d601f19601f8201168201806040525081019061124f919061211c565b6112975760405162461bcd60e51b8152602060048201526019602482015278115b595c99d95b98de481dda5d1a191c985dc819985a5b1959603a1b6044820152606401610a6f565b5050565b60065460ff16156112be5760405162461bcd60e51b8152600401610a6f90611f2c565b600081116112de5760405162461bcd60e51b8152600401610a6f90611f55565b6040805160a081018252338082526001600160a01b038581166020808501828152858701888152426060880190815260016080890181815260008981528287528b902099518a546001600160a01b0319908116918a16919091178b559451918a018054909516919097161790925551600287015551600386015591516004909401805460ff1916941515949094179093559251848152919290917f76a1ad651bc50df5ed36a8884155c46292a92f3605f168df56223cb72e98d02a910160405180910390a35050565b6003546001600160a01b031633146113d15760405162461bcd60e51b8152600401610a6f90611f09565b6101f48111156114125760405162461bcd60e51b815260206004820152600c60248201526b08ccaca40e8dede40d0d2ced60a31b6044820152606401610a6f565b600555565b60085460009060ff161561145e5760405162461bcd60e51b815260206004820152600e60248201526d1499595b9d1c985b9d0818d85b1b60921b6044820152606401610a6f565b6008805460ff1916600117905560065460ff161561148e5760405162461bcd60e51b8152600401610a6f90611f2c565b600086116114ae5760405162461bcd60e51b8152600401610a6f90611f55565b836114ed5760405162461bcd60e51b815260206004820152600f60248201526e12d650c81251081c995c5d5a5c9959608a1b6044820152606401610a6f565b6114f83388886107b8565b61153d5760405162461bcd60e51b815260206004820152601660248201527515985b1a590818dbdb9cd95b9d081c995c5d5a5c995960521b6044820152606401610a6f565b6040516bffffffffffffffffffffffff1933606090811b8216602084015289901b1660348201526048810187905242606882015265191a5c9958dd60d21b6088820152600090608e016040516020818303038152906040528051906020012090506000612710600554896115b1919061213e565b6115bb9190612155565b905060006115c9828a612177565b90506001600160a01b038a1661176b57883410156116215760405162461bcd60e51b8152602060048201526015602482015274125b9cdd59999a58da595b9d08115512081cd95b9d605a1b6044820152606401610a6f565b6004546040516000916001600160a01b03169083908381818185875af1925050503d806000811461166e576040519150601f19603f3d011682016040523d82523d6000602084013e611673565b606091505b50509050806116c45760405162461bcd60e51b815260206004820152601a60248201527f5472616e7366657220746f20637573746f6479206661696c65640000000000006044820152606401610a6f565b8215611765576003546040516000916001600160a01b03169085908381818185875af1925050503d8060008114611717576040519150601f19603f3d011682016040523d82523d6000602084013e61171c565b606091505b50509050806117635760405162461bcd60e51b8152602060048201526013602482015272119959481d1c985b9cd9995c8819985a5b1959606a1b6044820152606401610a6f565b505b50611900565b600480546040516323b872dd60e01b815233928101929092526001600160a01b039081166024830152604482018390528b91908216906323b872dd906064016020604051808303816000875af11580156117c9573d6000803e3d6000fd5b505050506040513d601f19601f820116820180604052508101906117ed919061211c565b6118395760405162461bcd60e51b815260206004820152601a60248201527f5472616e7366657220746f20637573746f6479206661696c65640000000000006044820152606401610a6f565b82156118fe576003546040516323b872dd60e01b81523360048201526001600160a01b03918216602482015260448101859052908216906323b872dd906064016020604051808303816000875af1158015611898573d6000803e3d6000fd5b505050506040513d601f19601f820116820180604052508101906118bc919061211c565b6118fe5760405162461bcd60e51b8152602060048201526013602482015272119959481d1c985b9cd9995c8819985a5b1959606a1b6044820152606401610a6f565b505b604051806101000160405280336001600160a01b031681526020018b6001600160a01b031681526020018a815260200189898080601f016020809104026020016040519081016040528093929190818152602001838380828437600092019190915250505090825250604080516020601f8a018190048102820181019092528881529181019190899089908190840183828082843760009201829052509385525050600160208085018290524260408087019190915260609586018a905289855284825293849020865181546001600160a01b03199081166001600160a01b03928316178355928801519382018054909316931692909217905591840151600283015550908201516003820190611a179082611ffa565b5060808201516004820190611a2c9082611ffa565b5060a082015160058201805491151560ff1992831617905560c0830151600683015560e090920151600791820155805460018181019092557fa66cc928b5edb82af9bd49922954155ab7b0942694bea4ce44661d9a8736c688018590553360008181526020839052604080822080546001600160a01b031990811682559481018054909516909455600284018290556003840191909155600490920180549093169092555184907fc34a68c845e8591ab05d894bdb616629475e7e3b048d670e1a4b32fb7aeffde990611b0b9085908790918252602082015260400190565b60405180910390a350506008805460ff19169055979650505050505050565b6003546001600160a01b03163314611b545760405162461bcd60e51b8152600401610a6f90611f09565b6001600160a01b03166000908152600260205260409020805460ff19169055565b6020808252825182820181905260009190848201906040850190845b81811015611bad57835183529284019291840191600101611b91565b50909695505050505050565b600060208284031215611bcb57600080fd5b5035919050565b6000815180845260005b81811015611bf857602081850181015186830182015201611bdc565b506000602082860101526020601f19601f83011685010191505092915050565b6001600160a01b038981168252881660208201526040810187905261010060608201819052600090611c4c83820189611bd2565b90508281036080840152611c608188611bd2565b95151560a0840152505060c081019290925260e09091015295945050505050565b80356001600160a01b0381168114611c9857600080fd5b919050565b600060208284031215611caf57600080fd5b611cb882611c81565b9392505050565b600080600060608486031215611cd457600080fd5b611cdd84611c81565b9250611ceb60208501611c81565b9150604084013590509250925092565b602080825282516001600160a01b031682820152820151600090611d2a60408401826001600160a01b03169052565b50604083015160608301526060830151610100806080850152611d51610120850183611bd2565b91506080850151601f198584030160a0860152611d6e8382611bd2565b92505060a0850151611d8460c086018215159052565b5060c085015160e085015260e085015181850152508091505092915050565b60008083601f840112611db557600080fd5b50813567ffffffffffffffff811115611dcd57600080fd5b602083019150836020828501011115611de557600080fd5b9250929050565b60008060008060008060808789031215611e0557600080fd5b611e0e87611c81565b955060208701359450604087013567ffffffffffffffff80821115611e3257600080fd5b611e3e8a838b01611da3565b90965094506060890135915080821115611e5757600080fd5b50611e6489828a01611da3565b979a9699509497509295939492505050565b60008060408385031215611e8957600080fd5b611e9283611c81565b946020939093013593505050565b600181811c90821680611eb457607f821691505b602082108103611ed457634e487b7160e01b600052602260045260246000fd5b50919050565b634e487b7160e01b600052601160045260246000fd5b80820180821115611f0357611f03611eda565b92915050565b6020808252600990820152682737ba1037bbb732b960b91b604082015260600190565b6020808252600f908201526e10dbdb9d1c9858dd081c185d5cd959608a1b604082015260600190565b6020808252600e908201526d125b9d985b1a5908185b5bdd5b9d60921b604082015260600190565b600060208284031215611f8f57600080fd5b5051919050565b634e487b7160e01b600052604160045260246000fd5b601f8211156111d357600081815260208120601f850160051c81016020861015611fd35750805b601f850160051c820191505b81811015611ff257828155600101611fdf565b505050505050565b815167ffffffffffffffff81111561201457612014611f96565b612028816120228454611ea0565b84611fac565b602080601f83116001811461205d57600084156120455750858301515b600019600386901b1c1916600185901b178555611ff2565b600085815260208120601f198616915b8281101561208c5788860151825594840194600190910190840161206d565b50858210156120aa5787850151600019600388901b60f8161c191681555b5050505050600190811b01905550565b81835281816020850137506000828201602090810191909152601f909101601f19169091010190565b8581526060602082015260006120fd6060830186886120ba565b82810360408401526121108185876120ba565b98975050505050505050565b60006020828403121561212e57600080fd5b81518015158114611cb857600080fd5b8082028115828204841417611f0357611f03611eda565b60008261217257634e487b7160e01b600052601260045260246000fd5b500490565b81810381811115611f0357611f03611eda56fea2646970667358221220c6c78ce33ff5889ef3ddeefbc0047a73b596a42653c5778cd72464887f0f891d64736f6c63430008130033","opcodes":"PUSH1 0x80 PUSH1 0x40 MSTORE PUSH1 0x6 DUP1 SLOAD PUSH1 0xFF NOT AND SWAP1 SSTORE CALLVALUE DUP1 ISZERO PUSH3 0x1B JUMPI PUSH1 0x0 DUP1 REVERT JUMPDEST POP PUSH1 0x40 MLOAD PUSH3 0x233B CODESIZE SUB DUP1 PUSH3 0x233B DUP4 CODECOPY DUP2 ADD PUSH1 0x40 DUP2 SWAP1 MSTORE PUSH3 0x3E SWAP2 PUSH3 0x12F JUMP JUMPDEST PUSH1 0x1 PUSH1 0x1 PUSH1 0xA0 SHL SUB DUP3 AND PUSH3 0x9A JUMPI PUSH1 0x40 MLOAD PUSH3 0x461BCD PUSH1 0xE5 SHL DUP2 MSTORE PUSH1 0x20 PUSH1 0x4 DUP3 ADD MSTORE PUSH1 0x16 PUSH1 0x24 DUP3 ADD MSTORE PUSH32 0x496E76616C696420637573746F64792077616C6C657400000000000000000000 PUSH1 0x44 DUP3 ADD MSTORE PUSH1 0x64 ADD JUMPDEST PUSH1 0x40 MLOAD DUP1 SWAP2 SUB SWAP1 REVERT JUMPDEST PUSH2 0x1F4 DUP2 GT ISZERO PUSH3 0xDD JUMPI PUSH1 0x40 MLOAD PUSH3 0x461BCD PUSH1 0xE5 SHL DUP2 MSTORE PUSH1 0x20 PUSH1 0x4 DUP3 ADD MSTORE PUSH1 0xC PUSH1 0x24 DUP3 ADD MSTORE PUSH12 0x8CCACA40E8DEDE40D0D2CED PUSH1 0xA3 SHL PUSH1 0x44 DUP3 ADD MSTORE PUSH1 0x64 ADD PUSH3 0x91 JUMP JUMPDEST PUSH1 0x3 DUP1 SLOAD CALLER PUSH1 0x1 PUSH1 0x1 PUSH1 0xA0 SHL SUB NOT SWAP2 DUP3 AND DUP2 OR SWAP1 SWAP3 SSTORE PUSH1 0x4 DUP1 SLOAD SWAP1 SWAP2 AND PUSH1 0x1 PUSH1 0x1 PUSH1 0xA0 SHL SUB SWAP5 SWAP1 SWAP5 AND SWAP4 SWAP1 SWAP4 OR SWAP1 SWAP3 SSTORE PUSH1 0x5 SSTORE PUSH1 0x0 SWAP1 DUP2 MSTORE PUSH1 0x2 PUSH1 0x20 MSTORE PUSH1 0x40 SWAP1 KECCAK256 DUP1 SLOAD PUSH1 0xFF NOT AND PUSH1 0x1 OR SWAP1 SSTORE PUSH3 0x16B JUMP JUMPDEST PUSH1 0x0 DUP1 PUSH1 0x40 DUP4 DUP6 SUB SLT ISZERO PUSH3 0x143 JUMPI PUSH1 0x0 DUP1 REVERT JUMPDEST DUP3 MLOAD PUSH1 0x1 PUSH1 0x1 PUSH1 0xA0 SHL SUB DUP2 AND DUP2 EQ PUSH3 0x15B JUMPI PUSH1 0x0 DUP1 REVERT JUMPDEST PUSH1 0x20 SWAP4 SWAP1 SWAP4 ADD MLOAD SWAP3 SWAP5 SWAP3 SWAP4 POP POP POP JUMP JUMPDEST PUSH2 0x21C0 DUP1 PUSH3 0x17B PUSH1 0x0 CODECOPY PUSH1 0x0 RETURN INVALID PUSH1 0x80 PUSH1 0x40 MSTORE PUSH1 0x4 CALLDATASIZE LT PUSH2 0x143 JUMPI PUSH1 0x0 CALLDATALOAD PUSH1 0xE0 SHR DUP1 PUSH4 0x8DA5CB5B GT PUSH2 0xB0 JUMPI DUP1 PUSH4 0xB9F7CE95 GT PUSH2 0x6C JUMPI DUP1 PUSH4 0xB9F7CE95 EQ PUSH2 0x4AB JUMPI DUP1 PUSH4 0xBC063E1A EQ PUSH2 0x4CB JUMPI DUP1 PUSH4 0xC7821ADE EQ PUSH2 0x4E1 JUMPI DUP1 PUSH4 0xE3453C4E EQ PUSH2 0x4F4 JUMPI DUP1 PUSH4 0xFAD8B32A EQ PUSH2 0x583 JUMPI DUP1 PUSH4 0xFF4C4D54 EQ PUSH2 0x5A3 JUMPI STOP JUMPDEST DUP1 PUSH4 0x8DA5CB5B EQ PUSH2 0x3D3 JUMPI DUP1 PUSH4 0x91440DA2 EQ PUSH2 0x40B JUMPI DUP1 PUSH4 0x959B8C3F EQ PUSH2 0x42B JUMPI DUP1 PUSH4 0x95CCEA67 EQ PUSH2 0x44B JUMPI DUP1 PUSH4 0x9D15E77F EQ PUSH2 0x46B JUMPI DUP1 PUSH4 0xAC1E5025 EQ PUSH2 0x48B JUMPI STOP JUMPDEST DUP1 PUSH4 0x3F4BA83A GT PUSH2 0xFF JUMPI DUP1 PUSH4 0x3F4BA83A EQ PUSH2 0x32B JUMPI DUP1 PUSH4 0x47C88BBE EQ PUSH2 0x340 JUMPI DUP1 PUSH4 0x5C975ABB EQ PUSH2 0x360 JUMPI DUP1 PUSH4 0x80CC5094 EQ PUSH2 0x37A JUMPI DUP1 PUSH4 0x8456CB59 EQ PUSH2 0x3A8 JUMPI DUP1 PUSH4 0x8BC7E8C4 EQ PUSH2 0x3BD JUMPI STOP JUMPDEST DUP1 PUSH4 0x2CAFE75 EQ PUSH2 0x14C JUMPI DUP1 PUSH4 0x124B82A5 EQ PUSH2 0x177 JUMPI DUP1 PUSH4 0x181D989B EQ PUSH2 0x1AB JUMPI DUP1 PUSH4 0x2980A6F5 EQ PUSH2 0x1EB JUMPI DUP1 PUSH4 0x2E5B2B38 EQ PUSH2 0x2DE JUMPI DUP1 PUSH4 0x3E7D48AB EQ PUSH2 0x2FE JUMPI STOP JUMPDEST CALLDATASIZE PUSH2 0x14A JUMPI STOP JUMPDEST STOP JUMPDEST CALLVALUE DUP1 ISZERO PUSH2 0x158 JUMPI PUSH1 0x0 DUP1 REVERT JUMPDEST POP PUSH2 0x161 PUSH2 0x5FB JUMP JUMPDEST PUSH1 0x40 MLOAD PUSH2 0x16E SWAP2 SWAP1 PUSH2 0x1B75 JUMP JUMPDEST PUSH1 0x40 MLOAD DUP1 SWAP2 SUB SWAP1 RETURN JUMPDEST CALLVALUE DUP1 ISZERO PUSH2 0x183 JUMPI PUSH1 0x0 DUP1 REVERT JUMPDEST POP PUSH2 0x197 PUSH2 0x192 CALLDATASIZE PUSH1 0x4 PUSH2 0x1BB9 JUMP JUMPDEST PUSH2 0x653 JUMP JUMPDEST PUSH1 0x40 MLOAD PUSH2 0x16E SWAP9 SWAP8 SWAP7 SWAP6 SWAP5 SWAP4 SWAP3 SWAP2 SWAP1 PUSH2 0x1C18 JUMP JUMPDEST CALLVALUE DUP1 ISZERO PUSH2 0x1B7 JUMPI PUSH1 0x0 DUP1 REVERT JUMPDEST POP PUSH2 0x1DB PUSH2 0x1C6 CALLDATASIZE PUSH1 0x4 PUSH2 0x1C9D JUMP JUMPDEST PUSH1 0x2 PUSH1 0x20 MSTORE PUSH1 0x0 SWAP1 DUP2 MSTORE PUSH1 0x40 SWAP1 KECCAK256 SLOAD PUSH1 0xFF AND DUP2 JUMP JUMPDEST PUSH1 0x40 MLOAD SWAP1 ISZERO ISZERO DUP2 MSTORE PUSH1 0x20 ADD PUSH2 0x16E JUMP JUMPDEST CALLVALUE DUP1 ISZERO PUSH2 0x1F7 JUMPI PUSH1 0x0 DUP1 REVERT JUMPDEST POP PUSH2 0x291 PUSH2 0x206 CALLDATASIZE PUSH1 0x4 PUSH2 0x1C9D JUMP JUMPDEST PUSH1 0x40 DUP1 MLOAD PUSH1 0xA0 DUP2 ADD DUP3 MSTORE PUSH1 0x0 DUP1 DUP3 MSTORE PUSH1 0x20 DUP3 ADD DUP2 SWAP1 MSTORE SWAP2 DUP2 ADD DUP3 SWAP1 MSTORE PUSH1 0x60 DUP2 ADD DUP3 SWAP1 MSTORE PUSH1 0x80 DUP2 ADD SWAP2 SWAP1 SWAP2 MSTORE POP PUSH1 0x1 PUSH1 0x1 PUSH1 0xA0 SHL SUB SWAP1 DUP2 AND PUSH1 0x0 SWAP1 DUP2 MSTORE PUSH1 0x1 PUSH1 0x20 DUP2 DUP2 MSTORE PUSH1 0x40 SWAP3 DUP4 SWAP1 KECCAK256 DUP4 MLOAD PUSH1 0xA0 DUP2 ADD DUP6 MSTORE DUP2 SLOAD DUP7 AND DUP2 MSTORE SWAP3 DUP2 ADD SLOAD SWAP1 SWAP5 AND SWAP1 DUP3 ADD MSTORE PUSH1 0x2 DUP4 ADD SLOAD SWAP2 DUP2 ADD SWAP2 SWAP1 SWAP2 MSTORE PUSH1 0x3 DUP3 ADD SLOAD PUSH1 0x60 DUP3 ADD MSTORE PUSH1 0x4 SWAP1 SWAP2 ADD SLOAD PUSH1 0xFF AND ISZERO ISZERO PUSH1 0x80 DUP3 ADD MSTORE SWAP1 JUMP JUMPDEST PUSH1 0x40 MLOAD PUSH2 0x16E SWAP2 SWAP1 DUP2 MLOAD PUSH1 0x1 PUSH1 0x1 PUSH1 0xA0 SHL SUB SWAP1 DUP2 AND DUP3 MSTORE PUSH1 0x20 DUP1 DUP5 ADD MLOAD SWAP1 SWAP2 AND SWAP1 DUP3 ADD MSTORE PUSH1 0x40 DUP1 DUP4 ADD MLOAD SWAP1 DUP3 ADD MSTORE PUSH1 0x60 DUP1 DUP4 ADD MLOAD SWAP1 DUP3 ADD MSTORE PUSH1 0x80 SWAP2 DUP3 ADD MLOAD ISZERO ISZERO SWAP2 DUP2 ADD SWAP2 SWAP1 SWAP2 MSTORE PUSH1 0xA0 ADD SWAP1 JUMP JUMPDEST CALLVALUE DUP1 ISZERO PUSH2 0x2EA JUMPI PUSH1 0x0 DUP1 REVERT JUMPDEST POP PUSH2 0x1DB PUSH2 0x2F9 CALLDATASIZE PUSH1 0x4 PUSH2 0x1CBF JUMP JUMPDEST PUSH2 0x7B8 JUMP JUMPDEST CALLVALUE DUP1 ISZERO PUSH2 0x30A JUMPI PUSH1 0x0 DUP1 REVERT JUMPDEST POP PUSH2 0x31E PUSH2 0x319 CALLDATASIZE PUSH1 0x4 PUSH2 0x1BB9 JUMP JUMPDEST PUSH2 0x86E JUMP JUMPDEST PUSH1 0x40 MLOAD PUSH2 0x16E SWAP2 SWAP1 PUSH2 0x1CFB JUMP JUMPDEST CALLVALUE DUP1 ISZERO PUSH2 0x337 JUMPI PUSH1 0x0 DUP1 REVERT JUMPDEST POP PUSH2 0x14A PUSH2 0xA45 JUMP JUMPDEST CALLVALUE DUP1 ISZERO PUSH2 0x34C JUMPI PUSH1 0x0 DUP1 REVERT JUMPDEST POP PUSH2 0x14A PUSH2 0x35B CALLDATASIZE PUSH1 0x4 PUSH2 0x1C9D JUMP JUMPDEST PUSH2 0xA84 JUMP JUMPDEST CALLVALUE DUP1 ISZERO PUSH2 0x36C JUMPI PUSH1 0x0 DUP1 REVERT JUMPDEST POP PUSH1 0x6 SLOAD PUSH2 0x1DB SWAP1 PUSH1 0xFF AND DUP2 JUMP JUMPDEST CALLVALUE DUP1 ISZERO PUSH2 0x386 JUMPI PUSH1 0x0 DUP1 REVERT JUMPDEST POP PUSH2 0x39A PUSH2 0x395 CALLDATASIZE PUSH1 0x4 PUSH2 0x1BB9 JUMP JUMPDEST PUSH2 0xB56 JUMP JUMPDEST PUSH1 0x40 MLOAD SWAP1 DUP2 MSTORE PUSH1 0x20 ADD PUSH2 0x16E JUMP JUMPDEST CALLVALUE DUP1 ISZERO PUSH2 0x3B4 JUMPI PUSH1 0x0 DUP1 REVERT JUMPDEST POP PUSH2 0x14A PUSH2 0xB77 JUMP JUMPDEST CALLVALUE DUP1 ISZERO PUSH2 0x3C9 JUMPI PUSH1 0x0 DUP1 REVERT JUMPDEST POP PUSH2 0x39A PUSH1 0x5 SLOAD DUP2 JUMP JUMPDEST CALLVALUE DUP1 ISZERO PUSH2 0x3DF JUMPI PUSH1 0x0 DUP1 REVERT JUMPDEST POP PUSH1 0x3 SLOAD PUSH2 0x3F3 SWAP1 PUSH1 0x1 PUSH1 0x1 PUSH1 0xA0 SHL SUB AND DUP2 JUMP JUMPDEST PUSH1 0x40 MLOAD PUSH1 0x1 PUSH1 0x1 PUSH1 0xA0 SHL SUB SWAP1 SWAP2 AND DUP2 MSTORE PUSH1 0x20 ADD PUSH2 0x16E JUMP JUMPDEST CALLVALUE DUP1 ISZERO PUSH2 0x417 JUMPI PUSH1 0x0 DUP1 REVERT JUMPDEST POP PUSH2 0x39A PUSH2 0x426 CALLDATASIZE PUSH1 0x4 PUSH2 0x1DEC JUMP JUMPDEST PUSH2 0xBB0 JUMP JUMPDEST CALLVALUE DUP1 ISZERO PUSH2 0x437 JUMPI PUSH1 0x0 DUP1 REVERT JUMPDEST POP PUSH2 0x14A PUSH2 0x446 CALLDATASIZE PUSH1 0x4 PUSH2 0x1C9D JUMP JUMPDEST PUSH2 0x1065 JUMP JUMPDEST CALLVALUE DUP1 ISZERO PUSH2 0x457 JUMPI PUSH1 0x0 DUP1 REVERT JUMPDEST POP PUSH2 0x14A PUSH2 0x466 CALLDATASIZE PUSH1 0x4 PUSH2 0x1E76 JUMP JUMPDEST PUSH2 0x10FC JUMP JUMPDEST CALLVALUE DUP1 ISZERO PUSH2 0x477 JUMPI PUSH1 0x0 DUP1 REVERT JUMPDEST POP PUSH2 0x14A PUSH2 0x486 CALLDATASIZE PUSH1 0x4 PUSH2 0x1E76 JUMP JUMPDEST PUSH2 0x129B JUMP JUMPDEST CALLVALUE DUP1 ISZERO PUSH2 0x497 JUMPI PUSH1 0x0 DUP1 REVERT JUMPDEST POP PUSH2 0x14A PUSH2 0x4A6 CALLDATASIZE PUSH1 0x4 PUSH2 0x1BB9 JUMP JUMPDEST PUSH2 0x13A7 JUMP JUMPDEST CALLVALUE DUP1 ISZERO PUSH2 0x4B7 JUMPI PUSH1 0x0 DUP1 REVERT JUMPDEST POP PUSH1 0x4 SLOAD PUSH2 0x3F3 SWAP1 PUSH1 0x1 PUSH1 0x1 PUSH1 0xA0 SHL SUB AND DUP2 JUMP JUMPDEST CALLVALUE DUP1 ISZERO PUSH2 0x4D7 JUMPI PUSH1 0x0 DUP1 REVERT JUMPDEST POP PUSH2 0x39A PUSH2 0x1F4 DUP2 JUMP JUMPDEST PUSH2 0x39A PUSH2 0x4EF CALLDATASIZE PUSH1 0x4 PUSH2 0x1DEC JUMP JUMPDEST PUSH2 0x1417 JUMP JUMPDEST CALLVALUE DUP1 ISZERO PUSH2 0x500 JUMPI PUSH1 0x0 DUP1 REVERT JUMPDEST POP PUSH2 0x54E PUSH2 0x50F CALLDATASIZE PUSH1 0x4 PUSH2 0x1C9D JUMP JUMPDEST PUSH1 0x1 PUSH1 0x20 DUP2 SWAP1 MSTORE PUSH1 0x0 SWAP2 DUP3 MSTORE PUSH1 0x40 SWAP1 SWAP2 KECCAK256 DUP1 SLOAD SWAP2 DUP2 ADD SLOAD PUSH1 0x2 DUP3 ADD SLOAD PUSH1 0x3 DUP4 ADD SLOAD PUSH1 0x4 SWAP1 SWAP4 ADD SLOAD PUSH1 0x1 PUSH1 0x1 PUSH1 0xA0 SHL SUB SWAP5 DUP6 AND SWAP5 SWAP1 SWAP3 AND SWAP3 SWAP1 SWAP2 PUSH1 0xFF AND DUP6 JUMP JUMPDEST PUSH1 0x40 DUP1 MLOAD PUSH1 0x1 PUSH1 0x1 PUSH1 0xA0 SHL SUB SWAP7 DUP8 AND DUP2 MSTORE SWAP6 SWAP1 SWAP5 AND PUSH1 0x20 DUP7 ADD MSTORE SWAP3 DUP5 ADD SWAP2 SWAP1 SWAP2 MSTORE PUSH1 0x60 DUP4 ADD MSTORE ISZERO ISZERO PUSH1 0x80 DUP3 ADD MSTORE PUSH1 0xA0 ADD PUSH2 0x16E JUMP JUMPDEST CALLVALUE DUP1 ISZERO PUSH2 0x58F JUMPI PUSH1 0x0 DUP1 REVERT JUMPDEST POP PUSH2 0x14A PUSH2 0x59E CALLDATASIZE PUSH1 0x4 PUSH2 0x1C9D JUMP JUMPDEST PUSH2 0x1B2A JUMP JUMPDEST CALLVALUE DUP1 ISZERO PUSH2 0x5AF JUMPI PUSH1 0x0 DUP1 REVERT JUMPDEST POP PUSH2 0x14A CALLER PUSH1 0x0 SWAP1 DUP2 MSTORE PUSH1 0x1 PUSH1 0x20 DUP2 SWAP1 MSTORE PUSH1 0x40 DUP3 KECCAK256 DUP1 SLOAD PUSH1 0x1 PUSH1 0x1 PUSH1 0xA0 SHL SUB NOT SWAP1 DUP2 AND DUP3 SSTORE SWAP2 DUP2 ADD DUP1 SLOAD SWAP1 SWAP3 AND SWAP1 SWAP2 SSTORE PUSH1 0x2 DUP2 ADD DUP3 SWAP1 SSTORE PUSH1 0x3 DUP2 ADD SWAP2 SWAP1 SWAP2 SSTORE PUSH1 0x4 ADD DUP1 SLOAD PUSH1 0xFF NOT AND SWAP1 SSTORE JUMP JUMPDEST PUSH1 0x60 PUSH1 0x7 DUP1 SLOAD DUP1 PUSH1 0x20 MUL PUSH1 0x20 ADD PUSH1 0x40 MLOAD SWAP1 DUP2 ADD PUSH1 0x40 MSTORE DUP1 SWAP3 SWAP2 SWAP1 DUP2 DUP2 MSTORE PUSH1 0x20 ADD DUP3 DUP1 SLOAD DUP1 ISZERO PUSH2 0x649 JUMPI PUSH1 0x20 MUL DUP3 ADD SWAP2 SWAP1 PUSH1 0x0 MSTORE PUSH1 0x20 PUSH1 0x0 KECCAK256 SWAP1 JUMPDEST DUP2 SLOAD DUP2 MSTORE PUSH1 0x20 ADD SWAP1 PUSH1 0x1 ADD SWAP1 DUP1 DUP4 GT PUSH2 0x635 JUMPI JUMPDEST POP POP POP POP POP SWAP1 POP SWAP1 JUMP JUMPDEST PUSH1 0x0 PUSH1 0x20 DUP2 SWAP1 MSTORE SWAP1 DUP2 MSTORE PUSH1 0x40 SWAP1 KECCAK256 DUP1 SLOAD PUSH1 0x1 DUP3 ADD SLOAD PUSH1 0x2 DUP4 ADD SLOAD PUSH1 0x3 DUP5 ADD DUP1 SLOAD PUSH1 0x1 PUSH1 0x1 PUSH1 0xA0 SHL SUB SWAP5 DUP6 AND SWAP6 SWAP5 SWAP1 SWAP4 AND SWAP4 SWAP2 SWAP3 PUSH2 0x68F SWAP1 PUSH2 0x1EA0 JUMP JUMPDEST DUP1 PUSH1 0x1F ADD PUSH1 0x20 DUP1 SWAP2 DIV MUL PUSH1 0x20 ADD PUSH1 0x40 MLOAD SWAP1 DUP2 ADD PUSH1 0x40 MSTORE DUP1 SWAP3 SWAP2 SWAP1 DUP2 DUP2 MSTORE PUSH1 0x20 ADD DUP3 DUP1 SLOAD PUSH2 0x6BB SWAP1 PUSH2 0x1EA0 JUMP JUMPDEST DUP1 ISZERO PUSH2 0x708 JUMPI DUP1 PUSH1 0x1F LT PUSH2 0x6DD JUMPI PUSH2 0x100 DUP1 DUP4 SLOAD DIV MUL DUP4 MSTORE SWAP2 PUSH1 0x20 ADD SWAP2 PUSH2 0x708 JUMP JUMPDEST DUP3 ADD SWAP2 SWAP1 PUSH1 0x0 MSTORE PUSH1 0x20 PUSH1 0x0 KECCAK256 SWAP1 JUMPDEST DUP2 SLOAD DUP2 MSTORE SWAP1 PUSH1 0x1 ADD SWAP1 PUSH1 0x20 ADD DUP1 DUP4 GT PUSH2 0x6EB JUMPI DUP3 SWAP1 SUB PUSH1 0x1F AND DUP3 ADD SWAP2 JUMPDEST POP POP POP POP POP SWAP1 DUP1 PUSH1 0x4 ADD DUP1 SLOAD PUSH2 0x71D SWAP1 PUSH2 0x1EA0 JUMP JUMPDEST DUP1 PUSH1 0x1F ADD PUSH1 0x20 DUP1 SWAP2 DIV MUL PUSH1 0x20 ADD PUSH1 0x40 MLOAD SWAP1 DUP2 ADD PUSH1 0x40 MSTORE DUP1 SWAP3 SWAP2 SWAP1 DUP2 DUP2 MSTORE PUSH1 0x20 ADD DUP3 DUP1 SLOAD PUSH2 0x749 SWAP1 PUSH2 0x1EA0 JUMP JUMPDEST DUP1 ISZERO PUSH2 0x796 JUMPI DUP1 PUSH1 0x1F LT PUSH2 0x76B JUMPI PUSH2 0x100 DUP1 DUP4 SLOAD DIV MUL DUP4 MSTORE SWAP2 PUSH1 0x20 ADD SWAP2 PUSH2 0x796 JUMP JUMPDEST DUP3 ADD SWAP2 SWAP1 PUSH1 0x0 MSTORE PUSH1 0x20 PUSH1 0x0 KECCAK256 SWAP1 JUMPDEST DUP2 SLOAD DUP2 MSTORE SWAP1 PUSH1 0x1 ADD SWAP1 PUSH1 0x20 ADD DUP1 DUP4 GT PUSH2 0x779 JUMPI DUP3 SWAP1 SUB PUSH1 0x1F AND DUP3 ADD SWAP2 JUMPDEST POP POP POP POP PUSH1 0x5 DUP4 ADD SLOAD PUSH1 0x6 DUP5 ADD SLOAD PUSH1 0x7 SWAP1 SWAP5 ADD SLOAD SWAP3 SWAP4 PUSH1 0xFF SWAP1 SWAP2 AND SWAP3 SWAP1 SWAP2 POP DUP9 JUMP JUMPDEST PUSH1 0x1 PUSH1 0x1 PUSH1 0xA0 SHL SUB DUP1 DUP5 AND PUSH1 0x0 SWAP1 DUP2 MSTORE PUSH1 0x1 PUSH1 0x20 DUP2 DUP2 MSTORE PUSH1 0x40 DUP1 DUP5 KECCAK256 DUP2 MLOAD PUSH1 0xA0 DUP2 ADD DUP4 MSTORE DUP2 SLOAD DUP8 AND DUP2 MSTORE SWAP4 DUP2 ADD SLOAD SWAP1 SWAP6 AND SWAP2 DUP4 ADD SWAP2 SWAP1 SWAP2 MSTORE PUSH1 0x2 DUP5 ADD SLOAD SWAP1 DUP3 ADD MSTORE PUSH1 0x3 DUP4 ADD SLOAD PUSH1 0x60 DUP3 ADD MSTORE PUSH1 0x4 SWAP1 SWAP3 ADD SLOAD PUSH1 0xFF AND ISZERO DUP1 ISZERO PUSH1 0x80 DUP5 ADD DUP2 SWAP1 MSTORE SWAP2 SWAP3 SWAP2 SWAP1 PUSH2 0x839 JUMPI POP DUP4 PUSH1 0x1 PUSH1 0x1 PUSH1 0xA0 SHL SUB AND DUP2 PUSH1 0x20 ADD MLOAD PUSH1 0x1 PUSH1 0x1 PUSH1 0xA0 SHL SUB AND EQ JUMPDEST DUP1 ISZERO PUSH2 0x849 JUMPI POP DUP3 DUP2 PUSH1 0x40 ADD MLOAD LT ISZERO JUMPDEST DUP1 ISZERO PUSH2 0x865 JUMPI POP PUSH1 0x60 DUP2 ADD MLOAD PUSH2 0x861 SWAP1 PUSH2 0xE10 PUSH2 0x1EF0 JUMP JUMPDEST TIMESTAMP GT ISZERO JUMPDEST SWAP6 SWAP5 POP POP POP POP POP JUMP JUMPDEST PUSH1 0x40 DUP1 MLOAD PUSH2 0x100 DUP2 ADD DUP3 MSTORE PUSH1 0x0 DUP1 DUP3 MSTORE PUSH1 0x20 DUP3 ADD DUP2 SWAP1 MSTORE SWAP2 DUP2 ADD DUP3 SWAP1 MSTORE PUSH1 0x60 DUP1 DUP3 ADD DUP2 SWAP1 MSTORE PUSH1 0x80 DUP3 ADD MSTORE PUSH1 0xA0 DUP2 ADD DUP3 SWAP1 MSTORE PUSH1 0xC0 DUP2 ADD DUP3 SWAP1 MSTORE PUSH1 0xE0 DUP2 ADD SWAP2 SWAP1 SWAP2 MSTORE PUSH1 0x0 DUP3 DUP2 MSTORE PUSH1 0x20 DUP2 DUP2 MSTORE PUSH1 0x40 SWAP2 DUP3 SWAP1 KECCAK256 DUP3 MLOAD PUSH2 0x100 DUP2 ADD DUP5 MSTORE DUP2 SLOAD PUSH1 0x1 PUSH1 0x1 PUSH1 0xA0 SHL SUB SWAP1 DUP2 AND DUP3 MSTORE PUSH1 0x1 DUP4 ADD SLOAD AND SWAP3 DUP2 ADD SWAP3 SWAP1 SWAP3 MSTORE PUSH1 0x2 DUP2 ADD SLOAD SWAP3 DUP3 ADD SWAP3 SWAP1 SWAP3 MSTORE PUSH1 0x3 DUP3 ADD DUP1 SLOAD SWAP2 SWAP3 SWAP2 PUSH1 0x60 DUP5 ADD SWAP2 SWAP1 PUSH2 0x907 SWAP1 PUSH2 0x1EA0 JUMP JUMPDEST DUP1 PUSH1 0x1F ADD PUSH1 0x20 DUP1 SWAP2 DIV MUL PUSH1 0x20 ADD PUSH1 0x40 MLOAD SWAP1 DUP2 ADD PUSH1 0x40 MSTORE DUP1 SWAP3 SWAP2 SWAP1 DUP2 DUP2 MSTORE PUSH1 0x20 ADD DUP3 DUP1 SLOAD PUSH2 0x933 SWAP1 PUSH2 0x1EA0 JUMP JUMPDEST DUP1 ISZERO PUSH2 0x980 JUMPI DUP1 PUSH1 0x1F LT PUSH2 0x955 JUMPI PUSH2 0x100 DUP1 DUP4 SLOAD DIV MUL DUP4 MSTORE SWAP2 PUSH1 0x20 ADD SWAP2 PUSH2 0x980 JUMP JUMPDEST DUP3 ADD SWAP2 SWAP1 PUSH1 0x0 MSTORE PUSH1 0x20 PUSH1 0x0 KECCAK256 SWAP1 JUMPDEST DUP2 SLOAD DUP2 MSTORE SWAP1 PUSH1 0x1 ADD SWAP1 PUSH1 0x20 ADD DUP1 DUP4 GT PUSH2 0x963 JUMPI DUP3 SWAP1 SUB PUSH1 0x1F AND DUP3 ADD SWAP2 JUMPDEST POP POP POP POP POP DUP2 MSTORE PUSH1 0x20 ADD PUSH1 0x4 DUP3 ADD DUP1 SLOAD PUSH2 0x999 SWAP1 PUSH2 0x1EA0 JUMP JUMPDEST DUP1 PUSH1 0x1F ADD PUSH1 0x20 DUP1 SWAP2 DIV MUL PUSH1 0x20 ADD PUSH1 0x40 MLOAD SWAP1 DUP2 ADD PUSH1 0x40 MSTORE DUP1 SWAP3 SWAP2 SWAP1 DUP2 DUP2 MSTORE PUSH1 0x20 ADD DUP3 DUP1 SLOAD PUSH2 0x9C5 SWAP1 PUSH2 0x1EA0 JUMP JUMPDEST DUP1 ISZERO PUSH2 0xA12 JUMPI DUP1 PUSH1 0x1F LT PUSH2 0x9E7 JUMPI PUSH2 0x100 DUP1 DUP4 SLOAD DIV MUL DUP4 MSTORE SWAP2 PUSH1 0x20 ADD SWAP2 PUSH2 0xA12 JUMP JUMPDEST DUP3 ADD SWAP2 SWAP1 PUSH1 0x0 MSTORE PUSH1 0x20 PUSH1 0x0 KECCAK256 SWAP1 JUMPDEST DUP2 SLOAD DUP2 MSTORE SWAP1 PUSH1 0x1 ADD SWAP1 PUSH1 0x20 ADD DUP1 DUP4 GT PUSH2 0x9F5 JUMPI DUP3 SWAP1 SUB PUSH1 0x1F AND DUP3 ADD SWAP2 JUMPDEST POP POP POP SWAP2 DUP4 MSTORE POP POP PUSH1 0x5 DUP3 ADD SLOAD PUSH1 0xFF AND ISZERO ISZERO PUSH1 0x20 DUP3 ADD MSTORE PUSH1 0x6 DUP3 ADD SLOAD PUSH1 0x40 DUP3 ADD MSTORE PUSH1 0x7 SWAP1 SWAP2 ADD SLOAD PUSH1 0x60 SWAP1 SWAP2 ADD MSTORE SWAP3 SWAP2 POP POP JUMP JUMPDEST PUSH1 0x3 SLOAD PUSH1 0x1 PUSH1 0x1 PUSH1 0xA0 SHL SUB AND CALLER EQ PUSH2 0xA78 JUMPI PUSH1 0x40 MLOAD PUSH3 0x461BCD PUSH1 0xE5 SHL DUP2 MSTORE PUSH1 0x4 ADD PUSH2 0xA6F SWAP1 PUSH2 0x1F09 JUMP JUMPDEST PUSH1 0x40 MLOAD DUP1 SWAP2 SUB SWAP1 REVERT JUMPDEST PUSH1 0x6 DUP1 SLOAD PUSH1 0xFF NOT AND SWAP1 SSTORE JUMP JUMPDEST PUSH1 0x3 SLOAD PUSH1 0x1 PUSH1 0x1 PUSH1 0xA0 SHL SUB AND CALLER EQ PUSH2 0xAAE JUMPI PUSH1 0x40 MLOAD PUSH3 0x461BCD PUSH1 0xE5 SHL DUP2 MSTORE PUSH1 0x4 ADD PUSH2 0xA6F SWAP1 PUSH2 0x1F09 JUMP JUMPDEST PUSH1 0x1 PUSH1 0x1 PUSH1 0xA0 SHL SUB DUP2 AND PUSH2 0xAF5 JUMPI PUSH1 0x40 MLOAD PUSH3 0x461BCD PUSH1 0xE5 SHL DUP2 MSTORE PUSH1 0x20 PUSH1 0x4 DUP3 ADD MSTORE PUSH1 0xE PUSH1 0x24 DUP3 ADD MSTORE PUSH14 0x125B9D985B1A59081DD85B1B195D PUSH1 0x92 SHL PUSH1 0x44 DUP3 ADD MSTORE PUSH1 0x64 ADD PUSH2 0xA6F JUMP JUMPDEST PUSH1 0x4 DUP1 SLOAD PUSH1 0x1 PUSH1 0x1 PUSH1 0xA0 SHL SUB DUP4 DUP2 AND PUSH1 0x1 PUSH1 0x1 PUSH1 0xA0 SHL SUB NOT DUP4 AND DUP2 OR SWAP1 SWAP4 SSTORE PUSH1 0x40 DUP1 MLOAD SWAP2 SWAP1 SWAP3 AND DUP1 DUP3 MSTORE PUSH1 0x20 DUP3 ADD SWAP4 SWAP1 SWAP4 MSTORE PUSH32 0xA9545502C426F71B85EC96F4F78BD2D87C50281E5BBE0A3B058364FF3CB989A6 SWAP2 ADD PUSH1 0x40 MLOAD DUP1 SWAP2 SUB SWAP1 LOG1 POP POP JUMP JUMPDEST PUSH1 0x7 DUP2 DUP2 SLOAD DUP2 LT PUSH2 0xB66 JUMPI PUSH1 0x0 DUP1 REVERT JUMPDEST PUSH1 0x0 SWAP2 DUP3 MSTORE PUSH1 0x20 SWAP1 SWAP2 KECCAK256 ADD SLOAD SWAP1 POP DUP2 JUMP JUMPDEST PUSH1 0x3 SLOAD PUSH1 0x1 PUSH1 0x1 PUSH1 0xA0 SHL SUB AND CALLER EQ PUSH2 0xBA1 JUMPI PUSH1 0x40 MLOAD PUSH3 0x461BCD PUSH1 0xE5 SHL DUP2 MSTORE PUSH1 0x4 ADD PUSH2 0xA6F SWAP1 PUSH2 0x1F09 JUMP JUMPDEST PUSH1 0x6 DUP1 SLOAD PUSH1 0xFF NOT AND PUSH1 0x1 OR SWAP1 SSTORE JUMP JUMPDEST PUSH1 0x8 SLOAD PUSH1 0x0 SWAP1 PUSH1 0xFF AND ISZERO PUSH2 0xBF7 JUMPI PUSH1 0x40 MLOAD PUSH3 0x461BCD PUSH1 0xE5 SHL DUP2 MSTORE PUSH1 0x20 PUSH1 0x4 DUP3 ADD MSTORE PUSH1 0xE PUSH1 0x24 DUP3 ADD MSTORE PUSH14 0x1499595B9D1C985B9D0818D85B1B PUSH1 0x92 SHL PUSH1 0x44 DUP3 ADD MSTORE PUSH1 0x64 ADD PUSH2 0xA6F JUMP JUMPDEST PUSH1 0x8 DUP1 SLOAD PUSH1 0xFF NOT AND PUSH1 0x1 OR SWAP1 SSTORE PUSH1 0x6 SLOAD PUSH1 0xFF AND ISZERO PUSH2 0xC27 JUMPI PUSH1 0x40 MLOAD PUSH3 0x461BCD PUSH1 0xE5 SHL DUP2 MSTORE PUSH1 0x4 ADD PUSH2 0xA6F SWAP1 PUSH2 0x1F2C JUMP JUMPDEST PUSH1 0x0 DUP7 GT PUSH2 0xC47 JUMPI PUSH1 0x40 MLOAD PUSH3 0x461BCD PUSH1 0xE5 SHL DUP2 MSTORE PUSH1 0x4 ADD PUSH2 0xA6F SWAP1 PUSH2 0x1F55 JUMP JUMPDEST DUP4 PUSH2 0xC86 JUMPI PUSH1 0x40 MLOAD PUSH3 0x461BCD PUSH1 0xE5 SHL DUP2 MSTORE PUSH1 0x20 PUSH1 0x4 DUP3 ADD MSTORE PUSH1 0xF PUSH1 0x24 DUP3 ADD MSTORE PUSH15 0x12D650C81251081C995C5D5A5C9959 PUSH1 0x8A SHL PUSH1 0x44 DUP3 ADD MSTORE PUSH1 0x64 ADD PUSH2 0xA6F JUMP JUMPDEST DUP2 PUSH2 0xCCB JUMPI PUSH1 0x40 MLOAD PUSH3 0x461BCD PUSH1 0xE5 SHL DUP2 MSTORE PUSH1 0x20 PUSH1 0x4 DUP3 ADD MSTORE PUSH1 0x15 PUSH1 0x24 DUP3 ADD MSTORE PUSH21 0x10985B9AC81858D8DBDD5B9D081C995C5D5A5C9959 PUSH1 0x5A SHL PUSH1 0x44 DUP3 ADD MSTORE PUSH1 0x64 ADD PUSH2 0xA6F JUMP JUMPDEST PUSH2 0xCD6 CALLER DUP9 DUP9 PUSH2 0x7B8 JUMP JUMPDEST PUSH2 0xD1B JUMPI PUSH1 0x40 MLOAD PUSH3 0x461BCD PUSH1 0xE5 SHL DUP2 MSTORE PUSH1 0x20 PUSH1 0x4 DUP3 ADD MSTORE PUSH1 0x16 PUSH1 0x24 DUP3 ADD MSTORE PUSH22 0x15985B1A590818DBDB9CD95B9D081C995C5D5A5C9959 PUSH1 0x52 SHL PUSH1 0x44 DUP3 ADD MSTORE PUSH1 0x64 ADD PUSH2 0xA6F JUMP JUMPDEST PUSH1 0x1 PUSH1 0x1 PUSH1 0xA0 SHL SUB DUP8 AND ISZERO PUSH2 0xDDE JUMPI PUSH1 0x40 MLOAD PUSH4 0x70A08231 PUSH1 0xE0 SHL DUP2 MSTORE CALLER PUSH1 0x4 DUP3 ADD MSTORE DUP7 SWAP1 PUSH1 0x1 PUSH1 0x1 PUSH1 0xA0 SHL SUB DUP10 AND SWAP1 PUSH4 0x70A08231 SWAP1 PUSH1 0x24 ADD PUSH1 0x20 PUSH1 0x40 MLOAD DUP1 DUP4 SUB DUP2 DUP7 GAS STATICCALL ISZERO DUP1 ISZERO PUSH2 0xD70 JUMPI RETURNDATASIZE PUSH1 0x0 DUP1 RETURNDATACOPY RETURNDATASIZE PUSH1 0x0 REVERT JUMPDEST POP POP POP POP PUSH1 0x40 MLOAD RETURNDATASIZE PUSH1 0x1F NOT PUSH1 0x1F DUP3 ADD AND DUP3 ADD DUP1 PUSH1 0x40 MSTORE POP DUP2 ADD SWAP1 PUSH2 0xD94 SWAP2 SWAP1 PUSH2 0x1F7D JUMP JUMPDEST LT ISZERO PUSH2 0xDD9 JUMPI PUSH1 0x40 MLOAD PUSH3 0x461BCD PUSH1 0xE5 SHL DUP2 MSTORE PUSH1 0x20 PUSH1 0x4 DUP3 ADD MSTORE PUSH1 0x14 PUSH1 0x24 DUP3 ADD MSTORE PUSH20 0x496E73756666696369656E742062616C616E6365 PUSH1 0x60 SHL PUSH1 0x44 DUP3 ADD MSTORE PUSH1 0x64 ADD PUSH2 0xA6F JUMP JUMPDEST PUSH2 0xE2F JUMP JUMPDEST CALLER BALANCE DUP7 GT ISZERO PUSH2 0xE2F JUMPI PUSH1 0x40 MLOAD PUSH3 0x461BCD PUSH1 0xE5 SHL DUP2 MSTORE PUSH1 0x20 PUSH1 0x4 DUP3 ADD MSTORE PUSH1 0x18 PUSH1 0x24 DUP3 ADD MSTORE PUSH32 0x496E73756666696369656E74204554482062616C616E63650000000000000000 PUSH1 0x44 DUP3 ADD MSTORE PUSH1 0x64 ADD PUSH2 0xA6F JUMP JUMPDEST PUSH1 0x40 MLOAD PUSH12 0xFFFFFFFFFFFFFFFFFFFFFFFF NOT CALLER PUSH1 0x60 SWAP1 DUP2 SHL DUP3 AND PUSH1 0x20 DUP5 ADD MSTORE DUP10 SWAP1 SHL AND PUSH1 0x34 DUP3 ADD MSTORE PUSH1 0x48 DUP2 ADD DUP8 SWAP1 MSTORE TIMESTAMP PUSH1 0x68 DUP3 ADD MSTORE NUMBER PUSH1 0x88 DUP3 ADD MSTORE PUSH1 0x0 SWAP1 PUSH1 0xA8 ADD PUSH1 0x40 DUP1 MLOAD PUSH1 0x1F NOT DUP2 DUP5 SUB ADD DUP2 MSTORE DUP3 DUP3 MSTORE DUP1 MLOAD PUSH1 0x20 SWAP2 DUP3 ADD KECCAK256 PUSH2 0x100 DUP5 ADD DUP4 MSTORE CALLER DUP5 MSTORE PUSH1 0x1 PUSH1 0x1 PUSH1 0xA0 SHL SUB DUP13 AND DUP5 DUP4 ADD MSTORE DUP4 DUP4 ADD DUP12 SWAP1 MSTORE DUP3 MLOAD PUSH1 0x1F DUP11 ADD DUP4 SWAP1 DIV DUP4 MUL DUP2 ADD DUP4 ADD SWAP1 SWAP4 MSTORE DUP9 DUP4 MSTORE SWAP4 POP PUSH1 0x60 DUP4 ADD SWAP2 SWAP1 DUP10 SWAP1 DUP10 SWAP1 DUP2 SWAP1 DUP5 ADD DUP4 DUP3 DUP1 DUP3 DUP5 CALLDATACOPY PUSH1 0x0 SWAP3 ADD SWAP2 SWAP1 SWAP2 MSTORE POP POP POP SWAP1 DUP3 MSTORE POP PUSH1 0x40 DUP1 MLOAD PUSH1 0x20 PUSH1 0x1F DUP9 ADD DUP2 SWAP1 DIV DUP2 MUL DUP3 ADD DUP2 ADD SWAP1 SWAP3 MSTORE DUP7 DUP2 MSTORE SWAP2 DUP2 ADD SWAP2 SWAP1 DUP8 SWAP1 DUP8 SWAP1 DUP2 SWAP1 DUP5 ADD DUP4 DUP3 DUP1 DUP3 DUP5 CALLDATACOPY PUSH1 0x0 SWAP3 ADD DUP3 SWAP1 MSTORE POP SWAP4 DUP6 MSTORE POP POP POP PUSH1 0x20 DUP1 DUP4 ADD DUP3 SWAP1 MSTORE TIMESTAMP PUSH1 0x40 DUP1 DUP6 ADD SWAP2 SWAP1 SWAP2 MSTORE PUSH1 0x60 SWAP4 DUP5 ADD DUP7 SWAP1 MSTORE DUP6 DUP4 MSTORE DUP3 DUP3 MSTORE SWAP2 DUP3 SWAP1 KECCAK256 DUP5 MLOAD DUP2 SLOAD PUSH1 0x1 PUSH1 0x1 PUSH1 0xA0 SHL SUB NOT SWAP1 DUP2 AND PUSH1 0x1 PUSH1 0x1 PUSH1 0xA0 SHL SUB SWAP3 DUP4 AND OR DUP4 SSTORE SWAP3 DUP7 ADD MLOAD PUSH1 0x1 DUP4 ADD DUP1 SLOAD SWAP1 SWAP5 AND SWAP2 AND OR SWAP1 SWAP2 SSTORE SWAP1 DUP4 ADD MLOAD PUSH1 0x2 DUP3 ADD SSTORE SWAP1 DUP3 ADD MLOAD PUSH1 0x3 DUP3 ADD SWAP1 PUSH2 0xF8A SWAP1 DUP3 PUSH2 0x1FFA JUMP JUMPDEST POP PUSH1 0x80 DUP3 ADD MLOAD PUSH1 0x4 DUP3 ADD SWAP1 PUSH2 0xF9F SWAP1 DUP3 PUSH2 0x1FFA JUMP JUMPDEST POP PUSH1 0xA0 DUP3 ADD MLOAD PUSH1 0x5 DUP3 ADD DUP1 SLOAD PUSH1 0xFF NOT AND SWAP2 ISZERO ISZERO SWAP2 SWAP1 SWAP2 OR SWAP1 SSTORE PUSH1 0xC0 DUP3 ADD MLOAD PUSH1 0x6 DUP3 ADD SSTORE PUSH1 0xE0 SWAP1 SWAP2 ADD MLOAD PUSH1 0x7 SWAP2 DUP3 ADD SSTORE DUP1 SLOAD PUSH1 0x1 DUP2 ADD DUP3 SSTORE PUSH1 0x0 SWAP2 SWAP1 SWAP2 MSTORE PUSH32 0xA66CC928B5EDB82AF9BD49922954155AB7B0942694BEA4CE44661D9A8736C688 ADD DUP2 SWAP1 SSTORE PUSH1 0x40 MLOAD PUSH1 0x1 PUSH1 0x1 PUSH1 0xA0 SHL SUB DUP10 AND SWAP1 CALLER SWAP1 DUP4 SWAP1 PUSH32 0xCD290E3806AB7C03B4639262C346758046CC34EE8AA2D5BFC9E2E2F85CBF5D6B SWAP1 PUSH2 0x1048 SWAP1 DUP13 SWAP1 DUP13 SWAP1 DUP13 SWAP1 DUP13 SWAP1 DUP13 SWAP1 PUSH2 0x20E3 JUMP JUMPDEST PUSH1 0x40 MLOAD DUP1 SWAP2 SUB SWAP1 LOG4 PUSH1 0x8 DUP1 SLOAD PUSH1 0xFF NOT AND SWAP1 SSTORE SWAP8 SWAP7 POP POP POP POP POP POP POP JUMP JUMPDEST PUSH1 0x3 SLOAD PUSH1 0x1 PUSH1 0x1 PUSH1 0xA0 SHL SUB AND CALLER EQ PUSH2 0x108F JUMPI PUSH1 0x40 MLOAD PUSH3 0x461BCD PUSH1 0xE5 SHL DUP2 MSTORE PUSH1 0x4 ADD PUSH2 0xA6F SWAP1 PUSH2 0x1F09 JUMP JUMPDEST PUSH1 0x1 PUSH1 0x1 PUSH1 0xA0 SHL SUB DUP2 AND PUSH2 0x10D8 JUMPI PUSH1 0x40 MLOAD PUSH3 0x461BCD PUSH1 0xE5 SHL DUP2 MSTORE PUSH1 0x20 PUSH1 0x4 DUP3 ADD MSTORE PUSH1 0x10 PUSH1 0x24 DUP3 ADD MSTORE PUSH16 0x24B73B30B634B21037B832B930BA37B9 PUSH1 0x81 SHL PUSH1 0x44 DUP3 ADD MSTORE PUSH1 0x64 ADD PUSH2 0xA6F JUMP JUMPDEST PUSH1 0x1 PUSH1 0x1 PUSH1 0xA0 SHL SUB AND PUSH1 0x0 SWAP1 DUP2 MSTORE PUSH1 0x2 PUSH1 0x20 MSTORE PUSH1 0x40 SWAP1 KECCAK256 DUP1 SLOAD PUSH1 0xFF NOT AND PUSH1 0x1 OR SWAP1 SSTORE JUMP JUMPDEST PUSH1 0x3 SLOAD PUSH1 0x1 PUSH1 0x1 PUSH1 0xA0 SHL SUB AND CALLER EQ PUSH2 0x1126 JUMPI PUSH1 0x40 MLOAD PUSH3 0x461BCD PUSH1 0xE5 SHL DUP2 MSTORE PUSH1 0x4 ADD PUSH2 0xA6F SWAP1 PUSH2 0x1F09 JUMP JUMPDEST PUSH1 0x1 PUSH1 0x1 PUSH1 0xA0 SHL SUB DUP3 AND PUSH2 0x11D8 JUMPI PUSH1 0x3 SLOAD PUSH1 0x40 MLOAD PUSH1 0x0 SWAP2 PUSH1 0x1 PUSH1 0x1 PUSH1 0xA0 SHL SUB AND SWAP1 DUP4 SWAP1 DUP4 DUP2 DUP2 DUP2 DUP6 DUP8 GAS CALL SWAP3 POP POP POP RETURNDATASIZE DUP1 PUSH1 0x0 DUP2 EQ PUSH2 0x1181 JUMPI PUSH1 0x40 MLOAD SWAP2 POP PUSH1 0x1F NOT PUSH1 0x3F RETURNDATASIZE ADD AND DUP3 ADD PUSH1 0x40 MSTORE RETURNDATASIZE DUP3 MSTORE RETURNDATASIZE PUSH1 0x0 PUSH1 0x20 DUP5 ADD RETURNDATACOPY PUSH2 0x1186 JUMP JUMPDEST PUSH1 0x60 SWAP2 POP JUMPDEST POP POP SWAP1 POP DUP1 PUSH2 0x11D3 JUMPI PUSH1 0x40 MLOAD PUSH3 0x461BCD PUSH1 0xE5 SHL DUP2 MSTORE PUSH1 0x20 PUSH1 0x4 DUP3 ADD MSTORE PUSH1 0x19 PUSH1 0x24 DUP3 ADD MSTORE PUSH25 0x115B595C99D95B98DE481DDA5D1A191C985DC819985A5B1959 PUSH1 0x3A SHL PUSH1 0x44 DUP3 ADD MSTORE PUSH1 0x64 ADD PUSH2 0xA6F JUMP JUMPDEST POP POP POP JUMP JUMPDEST PUSH1 0x3 SLOAD PUSH1 0x40 MLOAD PUSH4 0xA9059CBB PUSH1 0xE0 SHL DUP2 MSTORE PUSH1 0x1 PUSH1 0x1 PUSH1 0xA0 SHL SUB SWAP2 DUP3 AND PUSH1 0x4 DUP3 ADD MSTORE PUSH1 0x24 DUP2 ADD DUP4 SWAP1 MSTORE SWAP1 DUP4 AND SWAP1 PUSH4 0xA9059CBB SWAP1 PUSH1 0x44 ADD PUSH1 0x20 PUSH1 0x40 MLOAD DUP1 DUP4 SUB DUP2 PUSH1 0x0 DUP8 GAS CALL ISZERO DUP1 ISZERO PUSH2 0x122B JUMPI RETURNDATASIZE PUSH1 0x0 DUP1 RETURNDATACOPY RETURNDATASIZE PUSH1 0x0 REVERT JUMPDEST POP POP POP POP PUSH1 0x40 MLOAD RETURNDATASIZE PUSH1 0x1F NOT PUSH1 0x1F DUP3 ADD AND DUP3 ADD DUP1 PUSH1 0x40 MSTORE POP DUP2 ADD SWAP1 PUSH2 0x124F SWAP2 SWAP1 PUSH2 0x211C JUMP JUMPDEST PUSH2 0x1297 JUMPI PUSH1 0x40 MLOAD PUSH3 0x461BCD PUSH1 0xE5 SHL DUP2 MSTORE PUSH1 0x20 PUSH1 0x4 DUP3 ADD MSTORE PUSH1 0x19 PUSH1 0x24 DUP3 ADD MSTORE PUSH25 0x115B595C99D95B98DE481DDA5D1A191C985DC819985A5B1959 PUSH1 0x3A SHL PUSH1 0x44 DUP3 ADD MSTORE PUSH1 0x64 ADD PUSH2 0xA6F JUMP JUMPDEST POP POP JUMP JUMPDEST PUSH1 0x6 SLOAD PUSH1 0xFF AND ISZERO PUSH2 0x12BE JUMPI PUSH1 0x40 MLOAD PUSH3 0x461BCD PUSH1 0xE5 SHL DUP2 MSTORE PUSH1 0x4 ADD PUSH2 0xA6F SWAP1 PUSH2 0x1F2C JUMP JUMPDEST PUSH1 0x0 DUP2 GT PUSH2 0x12DE JUMPI PUSH1 0x40 MLOAD PUSH3 0x461BCD PUSH1 0xE5 SHL DUP2 MSTORE PUSH1 0x4 ADD PUSH2 0xA6F SWAP1 PUSH2 0x1F55 JUMP JUMPDEST PUSH1 0x40 DUP1 MLOAD PUSH1 0xA0 DUP2 ADD DUP3 MSTORE CALLER DUP1 DUP3 MSTORE PUSH1 0x1 PUSH1 0x1 PUSH1 0xA0 SHL SUB DUP6 DUP2 AND PUSH1 0x20 DUP1 DUP6 ADD DUP3 DUP2 MSTORE DUP6 DUP8 ADD DUP9 DUP2 MSTORE TIMESTAMP PUSH1 0x60 DUP9 ADD SWAP1 DUP2 MSTORE PUSH1 0x1 PUSH1 0x80 DUP10 ADD DUP2 DUP2 MSTORE PUSH1 0x0 DUP10 DUP2 MSTORE DUP3 DUP8 MSTORE DUP12 SWAP1 KECCAK256 SWAP10 MLOAD DUP11 SLOAD PUSH1 0x1 PUSH1 0x1 PUSH1 0xA0 SHL SUB NOT SWAP1 DUP2 AND SWAP2 DUP11 AND SWAP2 SWAP1 SWAP2 OR DUP12 SSTORE SWAP5 MLOAD SWAP2 DUP11 ADD DUP1 SLOAD SWAP1 SWAP6 AND SWAP2 SWAP1 SWAP8 AND OR SWAP1 SWAP3 SSTORE MLOAD PUSH1 0x2 DUP8 ADD SSTORE MLOAD PUSH1 0x3 DUP7 ADD SSTORE SWAP2 MLOAD PUSH1 0x4 SWAP1 SWAP5 ADD DUP1 SLOAD PUSH1 0xFF NOT AND SWAP5 ISZERO ISZERO SWAP5 SWAP1 SWAP5 OR SWAP1 SWAP4 SSTORE SWAP3 MLOAD DUP5 DUP2 MSTORE SWAP2 SWAP3 SWAP1 SWAP2 PUSH32 0x76A1AD651BC50DF5ED36A8884155C46292A92F3605F168DF56223CB72E98D02A SWAP2 ADD PUSH1 0x40 MLOAD DUP1 SWAP2 SUB SWAP1 LOG3 POP POP JUMP JUMPDEST PUSH1 0x3 SLOAD PUSH1 0x1 PUSH1 0x1 PUSH1 0xA0 SHL SUB AND CALLER EQ PUSH2 0x13D1 JUMPI PUSH1 0x40 MLOAD PUSH3 0x461BCD PUSH1 0xE5 SHL DUP2 MSTORE PUSH1 0x4 ADD PUSH2 0xA6F SWAP1 PUSH2 0x1F09 JUMP JUMPDEST PUSH2 0x1F4 DUP2 GT ISZERO PUSH2 0x1412 JUMPI PUSH1 0x40 MLOAD PUSH3 0x461BCD PUSH1 0xE5 SHL DUP2 MSTORE PUSH1 0x20 PUSH1 0x4 DUP3 ADD MSTORE PUSH1 0xC PUSH1 0x24 DUP3 ADD MSTORE PUSH12 0x8CCACA40E8DEDE40D0D2CED PUSH1 0xA3 SHL PUSH1 0x44 DUP3 ADD MSTORE PUSH1 0x64 ADD PUSH2 0xA6F JUMP JUMPDEST PUSH1 0x5 SSTORE JUMP JUMPDEST PUSH1 0x8 SLOAD PUSH1 0x0 SWAP1 PUSH1 0xFF AND ISZERO PUSH2 0x145E JUMPI PUSH1 0x40 MLOAD PUSH3 0x461BCD PUSH1 0xE5 SHL DUP2 MSTORE PUSH1 0x20 PUSH1 0x4 DUP3 ADD MSTORE PUSH1 0xE PUSH1 0x24 DUP3 ADD MSTORE PUSH14 0x1499595B9D1C985B9D0818D85B1B PUSH1 0x92 SHL PUSH1 0x44 DUP3 ADD MSTORE PUSH1 0x64 ADD PUSH2 0xA6F JUMP JUMPDEST PUSH1 0x8 DUP1 SLOAD PUSH1 0xFF NOT AND PUSH1 0x1 OR SWAP1 SSTORE PUSH1 0x6 SLOAD PUSH1 0xFF AND ISZERO PUSH2 0x148E JUMPI PUSH1 0x40 MLOAD PUSH3 0x461BCD PUSH1 0xE5 SHL DUP2 MSTORE PUSH1 0x4 ADD PUSH2 0xA6F SWAP1 PUSH2 0x1F2C JUMP JUMPDEST PUSH1 0x0 DUP7 GT PUSH2 0x14AE JUMPI PUSH1 0x40 MLOAD PUSH3 0x461BCD PUSH1 0xE5 SHL DUP2 MSTORE PUSH1 0x4 ADD PUSH2 0xA6F SWAP1 PUSH2 0x1F55 JUMP JUMPDEST DUP4 PUSH2 0x14ED JUMPI PUSH1 0x40 MLOAD PUSH3 0x461BCD PUSH1 0xE5 SHL DUP2 MSTORE PUSH1 0x20 PUSH1 0x4 DUP3 ADD MSTORE PUSH1 0xF PUSH1 0x24 DUP3 ADD MSTORE PUSH15 0x12D650C81251081C995C5D5A5C9959 PUSH1 0x8A SHL PUSH1 0x44 DUP3 ADD MSTORE PUSH1 0x64 ADD PUSH2 0xA6F JUMP JUMPDEST PUSH2 0x14F8 CALLER DUP9 DUP9 PUSH2 0x7B8 JUMP JUMPDEST PUSH2 0x153D JUMPI PUSH1 0x40 MLOAD PUSH3 0x461BCD PUSH1 0xE5 SHL DUP2 MSTORE PUSH1 0x20 PUSH1 0x4 DUP3 ADD MSTORE PUSH1 0x16 PUSH1 0x24 DUP3 ADD MSTORE PUSH22 0x15985B1A590818DBDB9CD95B9D081C995C5D5A5C9959 PUSH1 0x52 SHL PUSH1 0x44 DUP3 ADD MSTORE PUSH1 0x64 ADD PUSH2 0xA6F JUMP JUMPDEST PUSH1 0x40 MLOAD PUSH12 0xFFFFFFFFFFFFFFFFFFFFFFFF NOT CALLER PUSH1 0x60 SWAP1 DUP2 SHL DUP3 AND PUSH1 0x20 DUP5 ADD MSTORE DUP10 SWAP1 SHL AND PUSH1 0x34 DUP3 ADD MSTORE PUSH1 0x48 DUP2 ADD DUP8 SWAP1 MSTORE TIMESTAMP PUSH1 0x68 DUP3 ADD MSTORE PUSH6 0x191A5C9958DD PUSH1 0xD2 SHL PUSH1 0x88 DUP3 ADD MSTORE PUSH1 0x0 SWAP1 PUSH1 0x8E ADD PUSH1 0x40 MLOAD PUSH1 0x20 DUP2 DUP4 SUB SUB DUP2 MSTORE SWAP1 PUSH1 0x40 MSTORE DUP1 MLOAD SWAP1 PUSH1 0x20 ADD KECCAK256 SWAP1 POP PUSH1 0x0 PUSH2 0x2710 PUSH1 0x5 SLOAD DUP10 PUSH2 0x15B1 SWAP2 SWAP1 PUSH2 0x213E JUMP JUMPDEST PUSH2 0x15BB SWAP2 SWAP1 PUSH2 0x2155 JUMP JUMPDEST SWAP1 POP PUSH1 0x0 PUSH2 0x15C9 DUP3 DUP11 PUSH2 0x2177 JUMP JUMPDEST SWAP1 POP PUSH1 0x1 PUSH1 0x1 PUSH1 0xA0 SHL SUB DUP11 AND PUSH2 0x176B JUMPI DUP9 CALLVALUE LT ISZERO PUSH2 0x1621 JUMPI PUSH1 0x40 MLOAD PUSH3 0x461BCD PUSH1 0xE5 SHL DUP2 MSTORE PUSH1 0x20 PUSH1 0x4 DUP3 ADD MSTORE PUSH1 0x15 PUSH1 0x24 DUP3 ADD MSTORE PUSH21 0x125B9CDD59999A58DA595B9D08115512081CD95B9D PUSH1 0x5A SHL PUSH1 0x44 DUP3 ADD MSTORE PUSH1 0x64 ADD PUSH2 0xA6F JUMP JUMPDEST PUSH1 0x4 SLOAD PUSH1 0x40 MLOAD PUSH1 0x0 SWAP2 PUSH1 0x1 PUSH1 0x1 PUSH1 0xA0 SHL SUB AND SWAP1 DUP4 SWAP1 DUP4 DUP2 DUP2 DUP2 DUP6 DUP8 GAS CALL SWAP3 POP POP POP RETURNDATASIZE DUP1 PUSH1 0x0 DUP2 EQ PUSH2 0x166E JUMPI PUSH1 0x40 MLOAD SWAP2 POP PUSH1 0x1F NOT PUSH1 0x3F RETURNDATASIZE ADD AND DUP3 ADD PUSH1 0x40 MSTORE RETURNDATASIZE DUP3 MSTORE RETURNDATASIZE PUSH1 0x0 PUSH1 0x20 DUP5 ADD RETURNDATACOPY PUSH2 0x1673 JUMP JUMPDEST PUSH1 0x60 SWAP2 POP JUMPDEST POP POP SWAP1 POP DUP1 PUSH2 0x16C4 JUMPI PUSH1 0x40 MLOAD PUSH3 0x461BCD PUSH1 0xE5 SHL DUP2 MSTORE PUSH1 0x20 PUSH1 0x4 DUP3 ADD MSTORE PUSH1 0x1A PUSH1 0x24 DUP3 ADD MSTORE PUSH32 0x5472616E7366657220746F20637573746F6479206661696C6564000000000000 PUSH1 0x44 DUP3 ADD MSTORE PUSH1 0x64 ADD PUSH2 0xA6F JUMP JUMPDEST DUP3 ISZERO PUSH2 0x1765 JUMPI PUSH1 0x3 SLOAD PUSH1 0x40 MLOAD PUSH1 0x0 SWAP2 PUSH1 0x1 PUSH1 0x1 PUSH1 0xA0 SHL SUB AND SWAP1 DUP6 SWAP1 DUP4 DUP2 DUP2 DUP2 DUP6 DUP8 GAS CALL SWAP3 POP POP POP RETURNDATASIZE DUP1 PUSH1 0x0 DUP2 EQ PUSH2 0x1717 JUMPI PUSH1 0x40 MLOAD SWAP2 POP PUSH1 0x1F NOT PUSH1 0x3F RETURNDATASIZE ADD AND DUP3 ADD PUSH1 0x40 MSTORE RETURNDATASIZE DUP3 MSTORE RETURNDATASIZE PUSH1 0x0 PUSH1 0x20 DUP5 ADD RETURNDATACOPY PUSH2 0x171C JUMP JUMPDEST PUSH1 0x60 SWAP2 POP JUMPDEST POP POP SWAP1 POP DUP1 PUSH2 0x1763 JUMPI PUSH1 0x40 MLOAD PUSH3 0x461BCD PUSH1 0xE5 SHL DUP2 MSTORE PUSH1 0x20 PUSH1 0x4 DUP3 ADD MSTORE PUSH1 0x13 PUSH1 0x24 DUP3 ADD MSTORE PUSH19 0x119959481D1C985B9CD9995C8819985A5B1959 PUSH1 0x6A SHL PUSH1 0x44 DUP3 ADD MSTORE PUSH1 0x64 ADD PUSH2 0xA6F JUMP JUMPDEST POP JUMPDEST POP PUSH2 0x1900 JUMP JUMPDEST PUSH1 0x4 DUP1 SLOAD PUSH1 0x40 MLOAD PUSH4 0x23B872DD PUSH1 0xE0 SHL DUP2 MSTORE CALLER SWAP3 DUP2 ADD SWAP3 SWAP1 SWAP3 MSTORE PUSH1 0x1 PUSH1 0x1 PUSH1 0xA0 SHL SUB SWAP1 DUP2 AND PUSH1 0x24 DUP4 ADD MSTORE PUSH1 0x44 DUP3 ADD DUP4 SWAP1 MSTORE DUP12 SWAP2 SWAP1 DUP3 AND SWAP1 PUSH4 0x23B872DD SWAP1 PUSH1 0x64 ADD PUSH1 0x20 PUSH1 0x40 MLOAD DUP1 DUP4 SUB DUP2 PUSH1 0x0 DUP8 GAS CALL ISZERO DUP1 ISZERO PUSH2 0x17C9 JUMPI RETURNDATASIZE PUSH1 0x0 DUP1 RETURNDATACOPY RETURNDATASIZE PUSH1 0x0 REVERT JUMPDEST POP POP POP POP PUSH1 0x40 MLOAD RETURNDATASIZE PUSH1 0x1F NOT PUSH1 0x1F DUP3 ADD AND DUP3 ADD DUP1 PUSH1 0x40 MSTORE POP DUP2 ADD SWAP1 PUSH2 0x17ED SWAP2 SWAP1 PUSH2 0x211C JUMP JUMPDEST PUSH2 0x1839 JUMPI PUSH1 0x40 MLOAD PUSH3 0x461BCD PUSH1 0xE5 SHL DUP2 MSTORE PUSH1 0x20 PUSH1 0x4 DUP3 ADD MSTORE PUSH1 0x1A PUSH1 0x24 DUP3 ADD MSTORE PUSH32 0x5472616E7366657220746F20637573746F6479206661696C6564000000000000 PUSH1 0x44 DUP3 ADD MSTORE PUSH1 0x64 ADD PUSH2 0xA6F JUMP JUMPDEST DUP3 ISZERO PUSH2 0x18FE JUMPI PUSH1 0x3 SLOAD PUSH1 0x40 MLOAD PUSH4 0x23B872DD PUSH1 0xE0 SHL DUP2 MSTORE CALLER PUSH1 0x4 DUP3 ADD MSTORE PUSH1 0x1 PUSH1 0x1 PUSH1 0xA0 SHL SUB SWAP2 DUP3 AND PUSH1 0x24 DUP3 ADD MSTORE PUSH1 0x44 DUP2 ADD DUP6 SWAP1 MSTORE SWAP1 DUP3 AND SWAP1 PUSH4 0x23B872DD SWAP1 PUSH1 0x64 ADD PUSH1 0x20 PUSH1 0x40 MLOAD DUP1 DUP4 SUB DUP2 PUSH1 0x0 DUP8 GAS CALL ISZERO DUP1 ISZERO PUSH2 0x1898 JUMPI RETURNDATASIZE PUSH1 0x0 DUP1 RETURNDATACOPY RETURNDATASIZE PUSH1 0x0 REVERT JUMPDEST POP POP POP POP PUSH1 0x40 MLOAD RETURNDATASIZE PUSH1 0x1F NOT PUSH1 0x1F DUP3 ADD AND DUP3 ADD DUP1 PUSH1 0x40 MSTORE POP DUP2 ADD SWAP1 PUSH2 0x18BC SWAP2 SWAP1 PUSH2 0x211C JUMP JUMPDEST PUSH2 0x18FE JUMPI PUSH1 0x40 MLOAD PUSH3 0x461BCD PUSH1 0xE5 SHL DUP2 MSTORE PUSH1 0x20 PUSH1 0x4 DUP3 ADD MSTORE PUSH1 0x13 PUSH1 0x24 DUP3 ADD MSTORE PUSH19 0x119959481D1C985B9CD9995C8819985A5B1959 PUSH1 0x6A SHL PUSH1 0x44 DUP3 ADD MSTORE PUSH1 0x64 ADD PUSH2 0xA6F JUMP JUMPDEST POP JUMPDEST PUSH1 0x40 MLOAD DUP1 PUSH2 0x100 ADD PUSH1 0x40 MSTORE DUP1 CALLER PUSH1 0x1 PUSH1 0x1 PUSH1 0xA0 SHL SUB AND DUP2 MSTORE PUSH1 0x20 ADD DUP12 PUSH1 0x1 PUSH1 0x1 PUSH1 0xA0 SHL SUB AND DUP2 MSTORE PUSH1 0x20 ADD DUP11 DUP2 MSTORE PUSH1 0x20 ADD DUP10 DUP10 DUP1 DUP1 PUSH1 0x1F ADD PUSH1 0x20 DUP1 SWAP2 DIV MUL PUSH1 0x20 ADD PUSH1 0x40 MLOAD SWAP1 DUP2 ADD PUSH1 0x40 MSTORE DUP1 SWAP4 SWAP3 SWAP2 SWAP1 DUP2 DUP2 MSTORE PUSH1 0x20 ADD DUP4 DUP4 DUP1 DUP3 DUP5 CALLDATACOPY PUSH1 0x0 SWAP3 ADD SWAP2 SWAP1 SWAP2 MSTORE POP POP POP SWAP1 DUP3 MSTORE POP PUSH1 0x40 DUP1 MLOAD PUSH1 0x20 PUSH1 0x1F DUP11 ADD DUP2 SWAP1 DIV DUP2 MUL DUP3 ADD DUP2 ADD SWAP1 SWAP3 MSTORE DUP9 DUP2 MSTORE SWAP2 DUP2 ADD SWAP2 SWAP1 DUP10 SWAP1 DUP10 SWAP1 DUP2 SWAP1 DUP5 ADD DUP4 DUP3 DUP1 DUP3 DUP5 CALLDATACOPY PUSH1 0x0 SWAP3 ADD DUP3 SWAP1 MSTORE POP SWAP4 DUP6 MSTORE POP POP PUSH1 0x1 PUSH1 0x20 DUP1 DUP6 ADD DUP3 SWAP1 MSTORE TIMESTAMP PUSH1 0x40 DUP1 DUP8 ADD SWAP2 SWAP1 SWAP2 MSTORE PUSH1 0x60 SWAP6 DUP7 ADD DUP11 SWAP1 MSTORE DUP10 DUP6 MSTORE DUP5 DUP3 MSTORE SWAP4 DUP5 SWAP1 KECCAK256 DUP7 MLOAD DUP2 SLOAD PUSH1 0x1 PUSH1 0x1 PUSH1 0xA0 SHL SUB NOT SWAP1 DUP2 AND PUSH1 0x1 PUSH1 0x1 PUSH1 0xA0 SHL SUB SWAP3 DUP4 AND OR DUP4 SSTORE SWAP3 DUP9 ADD MLOAD SWAP4 DUP3 ADD DUP1 SLOAD SWAP1 SWAP4 AND SWAP4 AND SWAP3 SWAP1 SWAP3 OR SWAP1 SSTORE SWAP2 DUP5 ADD MLOAD PUSH1 0x2 DUP4 ADD SSTORE POP SWAP1 DUP3 ADD MLOAD PUSH1 0x3 DUP3 ADD SWAP1 PUSH2 0x1A17 SWAP1 DUP3 PUSH2 0x1FFA JUMP JUMPDEST POP PUSH1 0x80 DUP3 ADD MLOAD PUSH1 0x4 DUP3 ADD SWAP1 PUSH2 0x1A2C SWAP1 DUP3 PUSH2 0x1FFA JUMP JUMPDEST POP PUSH1 0xA0 DUP3 ADD MLOAD PUSH1 0x5 DUP3 ADD DUP1 SLOAD SWAP2 ISZERO ISZERO PUSH1 0xFF NOT SWAP3 DUP4 AND OR SWAP1 SSTORE PUSH1 0xC0 DUP4 ADD MLOAD PUSH1 0x6 DUP4 ADD SSTORE PUSH1 0xE0 SWAP1 SWAP3 ADD MLOAD PUSH1 0x7 SWAP2 DUP3 ADD SSTORE DUP1 SLOAD PUSH1 0x1 DUP2 DUP2 ADD SWAP1 SWAP3 SSTORE PUSH32 0xA66CC928B5EDB82AF9BD49922954155AB7B0942694BEA4CE44661D9A8736C688 ADD DUP6 SWAP1 SSTORE CALLER PUSH1 0x0 DUP2 DUP2 MSTORE PUSH1 0x20 DUP4 SWAP1 MSTORE PUSH1 0x40 DUP1 DUP3 KECCAK256 DUP1 SLOAD PUSH1 0x1 PUSH1 0x1 PUSH1 0xA0 SHL SUB NOT SWAP1 DUP2 AND DUP3 SSTORE SWAP5 DUP2 ADD DUP1 SLOAD SWAP1 SWAP6 AND SWAP1 SWAP5 SSTORE PUSH1 0x2 DUP5 ADD DUP3 SWAP1 SSTORE PUSH1 0x3 DUP5 ADD SWAP2 SWAP1 SWAP2 SSTORE PUSH1 0x4 SWAP1 SWAP3 ADD DUP1 SLOAD SWAP1 SWAP4 AND SWAP1 SWAP3 SSTORE MLOAD DUP5 SWAP1 PUSH32 0xC34A68C845E8591AB05D894BDB616629475E7E3B048D670E1A4B32FB7AEFFDE9 SWAP1 PUSH2 0x1B0B SWAP1 DUP6 SWAP1 DUP8 SWAP1 SWAP2 DUP3 MSTORE PUSH1 0x20 DUP3 ADD MSTORE PUSH1 0x40 ADD SWAP1 JUMP JUMPDEST PUSH1 0x40 MLOAD DUP1 SWAP2 SUB SWAP1 LOG3 POP POP PUSH1 0x8 DUP1 SLOAD PUSH1 0xFF NOT AND SWAP1 SSTORE SWAP8 SWAP7 POP POP POP POP POP POP POP JUMP JUMPDEST PUSH1 0x3 SLOAD PUSH1 0x1 PUSH1 0x1 PUSH1 0xA0 SHL SUB AND CALLER EQ PUSH2 0x1B54 JUMPI PUSH1 0x40 MLOAD PUSH3 0x461BCD PUSH1 0xE5 SHL DUP2 MSTORE PUSH1 0x4 ADD PUSH2 0xA6F SWAP1 PUSH2 0x1F09 JUMP JUMPDEST PUSH1 0x1 PUSH1 0x1 PUSH1 0xA0 SHL SUB AND PUSH1 0x0 SWAP1 DUP2 MSTORE PUSH1 0x2 PUSH1 0x20 MSTORE PUSH1 0x40 SWAP1 KECCAK256 DUP1 SLOAD PUSH1 0xFF NOT AND SWAP1 SSTORE JUMP JUMPDEST PUSH1 0x20 DUP1 DUP3 MSTORE DUP3 MLOAD DUP3 DUP3 ADD DUP2 SWAP1 MSTORE PUSH1 0x0 SWAP2 SWAP1 DUP5 DUP3 ADD SWAP1 PUSH1 0x40 DUP6 ADD SWAP1 DUP5 JUMPDEST DUP2 DUP2 LT ISZERO PUSH2 0x1BAD JUMPI DUP4 MLOAD DUP4 MSTORE SWAP3 DUP5 ADD SWAP3 SWAP2 DUP5 ADD SWAP2 PUSH1 0x1 ADD PUSH2 0x1B91 JUMP JUMPDEST POP SWAP1 SWAP7 SWAP6 POP POP POP POP POP POP JUMP JUMPDEST PUSH1 0x0 PUSH1 0x20 DUP3 DUP5 SUB SLT ISZERO PUSH2 0x1BCB JUMPI PUSH1 0x0 DUP1 REVERT JUMPDEST POP CALLDATALOAD SWAP2 SWAP1 POP JUMP JUMPDEST PUSH1 0x0 DUP2 MLOAD DUP1 DUP5 MSTORE PUSH1 0x0 JUMPDEST DUP2 DUP2 LT ISZERO PUSH2 0x1BF8 JUMPI PUSH1 0x20 DUP2 DUP6 ADD DUP2 ADD MLOAD DUP7 DUP4 ADD DUP3 ADD MSTORE ADD PUSH2 0x1BDC JUMP JUMPDEST POP PUSH1 0x0 PUSH1 0x20 DUP3 DUP7 ADD ADD MSTORE PUSH1 0x20 PUSH1 0x1F NOT PUSH1 0x1F DUP4 ADD AND DUP6 ADD ADD SWAP2 POP POP SWAP3 SWAP2 POP POP JUMP JUMPDEST PUSH1 0x1 PUSH1 0x1 PUSH1 0xA0 SHL SUB DUP10 DUP2 AND DUP3 MSTORE DUP9 AND PUSH1 0x20 DUP3 ADD MSTORE PUSH1 0x40 DUP2 ADD DUP8 SWAP1 MSTORE PUSH2 0x100 PUSH1 0x60 DUP3 ADD DUP2 SWAP1 MSTORE PUSH1 0x0 SWAP1 PUSH2 0x1C4C DUP4 DUP3 ADD DUP10 PUSH2 0x1BD2 JUMP JUMPDEST SWAP1 POP DUP3 DUP2 SUB PUSH1 0x80 DUP5 ADD MSTORE PUSH2 0x1C60 DUP2 DUP9 PUSH2 0x1BD2 JUMP JUMPDEST SWAP6 ISZERO ISZERO PUSH1 0xA0 DUP5 ADD MSTORE POP POP PUSH1 0xC0 DUP2 ADD SWAP3 SWAP1 SWAP3 MSTORE PUSH1 0xE0 SWAP1 SWAP2 ADD MSTORE SWAP6 SWAP5 POP POP POP POP POP JUMP JUMPDEST DUP1 CALLDATALOAD PUSH1 0x1 PUSH1 0x1 PUSH1 0xA0 SHL SUB DUP2 AND DUP2 EQ PUSH2 0x1C98 JUMPI PUSH1 0x0 DUP1 REVERT JUMPDEST SWAP2 SWAP1 POP JUMP JUMPDEST PUSH1 0x0 PUSH1 0x20 DUP3 DUP5 SUB SLT ISZERO PUSH2 0x1CAF JUMPI PUSH1 0x0 DUP1 REVERT JUMPDEST PUSH2 0x1CB8 DUP3 PUSH2 0x1C81 JUMP JUMPDEST SWAP4 SWAP3 POP POP POP JUMP JUMPDEST PUSH1 0x0 DUP1 PUSH1 0x0 PUSH1 0x60 DUP5 DUP7 SUB SLT ISZERO PUSH2 0x1CD4 JUMPI PUSH1 0x0 DUP1 REVERT JUMPDEST PUSH2 0x1CDD DUP5 PUSH2 0x1C81 JUMP JUMPDEST SWAP3 POP PUSH2 0x1CEB PUSH1 0x20 DUP6 ADD PUSH2 0x1C81 JUMP JUMPDEST SWAP2 POP PUSH1 0x40 DUP5 ADD CALLDATALOAD SWAP1 POP SWAP3 POP SWAP3 POP SWAP3 JUMP JUMPDEST PUSH1 0x20 DUP1 DUP3 MSTORE DUP3 MLOAD PUSH1 0x1 PUSH1 0x1 PUSH1 0xA0 SHL SUB AND DUP3 DUP3 ADD MSTORE DUP3 ADD MLOAD PUSH1 0x0 SWAP1 PUSH2 0x1D2A PUSH1 0x40 DUP5 ADD DUP3 PUSH1 0x1 PUSH1 0x1 PUSH1 0xA0 SHL SUB AND SWAP1 MSTORE JUMP JUMPDEST POP PUSH1 0x40 DUP4 ADD MLOAD PUSH1 0x60 DUP4 ADD MSTORE PUSH1 0x60 DUP4 ADD MLOAD PUSH2 0x100 DUP1 PUSH1 0x80 DUP6 ADD MSTORE PUSH2 0x1D51 PUSH2 0x120 DUP6 ADD DUP4 PUSH2 0x1BD2 JUMP JUMPDEST SWAP2 POP PUSH1 0x80 DUP6 ADD MLOAD PUSH1 0x1F NOT DUP6 DUP5 SUB ADD PUSH1 0xA0 DUP7 ADD MSTORE PUSH2 0x1D6E DUP4 DUP3 PUSH2 0x1BD2 JUMP JUMPDEST SWAP3 POP POP PUSH1 0xA0 DUP6 ADD MLOAD PUSH2 0x1D84 PUSH1 0xC0 DUP7 ADD DUP3 ISZERO ISZERO SWAP1 MSTORE JUMP JUMPDEST POP PUSH1 0xC0 DUP6 ADD MLOAD PUSH1 0xE0 DUP6 ADD MSTORE PUSH1 0xE0 DUP6 ADD MLOAD DUP2 DUP6 ADD MSTORE POP DUP1 SWAP2 POP POP SWAP3 SWAP2 POP POP JUMP JUMPDEST PUSH1 0x0 DUP1 DUP4 PUSH1 0x1F DUP5 ADD SLT PUSH2 0x1DB5 JUMPI PUSH1 0x0 DUP1 REVERT JUMPDEST POP DUP2 CALLDATALOAD PUSH8 0xFFFFFFFFFFFFFFFF DUP2 GT ISZERO PUSH2 0x1DCD JUMPI PUSH1 0x0 DUP1 REVERT JUMPDEST PUSH1 0x20 DUP4 ADD SWAP2 POP DUP4 PUSH1 0x20 DUP3 DUP6 ADD ADD GT ISZERO PUSH2 0x1DE5 JUMPI PUSH1 0x0 DUP1 REVERT JUMPDEST SWAP3 POP SWAP3 SWAP1 POP JUMP JUMPDEST PUSH1 0x0 DUP1 PUSH1 0x0 DUP1 PUSH1 0x0 DUP1 PUSH1 0x80 DUP8 DUP10 SUB SLT ISZERO PUSH2 0x1E05 JUMPI PUSH1 0x0 DUP1 REVERT JUMPDEST PUSH2 0x1E0E DUP8 PUSH2 0x1C81 JUMP JUMPDEST SWAP6 POP PUSH1 0x20 DUP8 ADD CALLDATALOAD SWAP5 POP PUSH1 0x40 DUP8 ADD CALLDATALOAD PUSH8 0xFFFFFFFFFFFFFFFF DUP1 DUP3 GT ISZERO PUSH2 0x1E32 JUMPI PUSH1 0x0 DUP1 REVERT JUMPDEST PUSH2 0x1E3E DUP11 DUP4 DUP12 ADD PUSH2 0x1DA3 JUMP JUMPDEST SWAP1 SWAP7 POP SWAP5 POP PUSH1 0x60 DUP10 ADD CALLDATALOAD SWAP2 POP DUP1 DUP3 GT ISZERO PUSH2 0x1E57 JUMPI PUSH1 0x0 DUP1 REVERT JUMPDEST POP PUSH2 0x1E64 DUP10 DUP3 DUP11 ADD PUSH2 0x1DA3 JUMP JUMPDEST SWAP8 SWAP11 SWAP7 SWAP10 POP SWAP5 SWAP8 POP SWAP3 SWAP6 SWAP4 SWAP5 SWAP3 POP POP POP JUMP JUMPDEST PUSH1 0x0 DUP1 PUSH1 0x40 DUP4 DUP6 SUB SLT ISZERO PUSH2 0x1E89 JUMPI PUSH1 0x0 DUP1 REVERT JUMPDEST PUSH2 0x1E92 DUP4 PUSH2 0x1C81 JUMP JUMPDEST SWAP5 PUSH1 0x20 SWAP4 SWAP1 SWAP4 ADD CALLDATALOAD SWAP4 POP POP POP JUMP JUMPDEST PUSH1 0x1 DUP2 DUP2 SHR SWAP1 DUP3 AND DUP1 PUSH2 0x1EB4 JUMPI PUSH1 0x7F DUP3 AND SWAP2 POP JUMPDEST PUSH1 0x20 DUP3 LT DUP2 SUB PUSH2 0x1ED4 JUMPI PUSH4 0x4E487B71 PUSH1 0xE0 SHL PUSH1 0x0 MSTORE PUSH1 0x22 PUSH1 0x4 MSTORE PUSH1 0x24 PUSH1 0x0 REVERT JUMPDEST POP SWAP2 SWAP1 POP JUMP JUMPDEST PUSH4 0x4E487B71 PUSH1 0xE0 SHL PUSH1 0x0 MSTORE PUSH1 0x11 PUSH1 0x4 MSTORE PUSH1 0x24 PUSH1 0x0 REVERT JUMPDEST DUP1 DUP3 ADD DUP1 DUP3 GT ISZERO PUSH2 0x1F03 JUMPI PUSH2 0x1F03 PUSH2 0x1EDA JUMP JUMPDEST SWAP3 SWAP2 POP POP JUMP JUMPDEST PUSH1 0x20 DUP1 DUP3 MSTORE PUSH1 0x9 SWAP1 DUP3 ADD MSTORE PUSH9 0x2737BA1037BBB732B9 PUSH1 0xB9 SHL PUSH1 0x40 DUP3 ADD MSTORE PUSH1 0x60 ADD SWAP1 JUMP JUMPDEST PUSH1 0x20 DUP1 DUP3 MSTORE PUSH1 0xF SWAP1 DUP3 ADD MSTORE PUSH15 0x10DBDB9D1C9858DD081C185D5CD959 PUSH1 0x8A SHL PUSH1 0x40 DUP3 ADD MSTORE PUSH1 0x60 ADD SWAP1 JUMP JUMPDEST PUSH1 0x20 DUP1 DUP3 MSTORE PUSH1 0xE SWAP1 DUP3 ADD MSTORE PUSH14 0x125B9D985B1A5908185B5BDD5B9D PUSH1 0x92 SHL PUSH1 0x40 DUP3 ADD MSTORE PUSH1 0x60 ADD SWAP1 JUMP JUMPDEST PUSH1 0x0 PUSH1 0x20 DUP3 DUP5 SUB SLT ISZERO PUSH2 0x1F8F JUMPI PUSH1 0x0 DUP1 REVERT JUMPDEST POP MLOAD SWAP2 SWAP1 POP JUMP JUMPDEST PUSH4 0x4E487B71 PUSH1 0xE0 SHL PUSH1 0x0 MSTORE PUSH1 0x41 PUSH1 0x4 MSTORE PUSH1 0x24 PUSH1 0x0 REVERT JUMPDEST PUSH1 0x1F DUP3 GT ISZERO PUSH2 0x11D3 JUMPI PUSH1 0x0 DUP2 DUP2 MSTORE PUSH1 0x20 DUP2 KECCAK256 PUSH1 0x1F DUP6 ADD PUSH1 0x5 SHR DUP2 ADD PUSH1 0x20 DUP7 LT ISZERO PUSH2 0x1FD3 JUMPI POP DUP1 JUMPDEST PUSH1 0x1F DUP6 ADD PUSH1 0x5 SHR DUP3 ADD SWAP2 POP JUMPDEST DUP2 DUP2 LT ISZERO PUSH2 0x1FF2 JUMPI DUP3 DUP2 SSTORE PUSH1 0x1 ADD PUSH2 0x1FDF JUMP JUMPDEST POP POP POP POP POP POP JUMP JUMPDEST DUP2 MLOAD PUSH8 0xFFFFFFFFFFFFFFFF DUP2 GT ISZERO PUSH2 0x2014 JUMPI PUSH2 0x2014 PUSH2 0x1F96 JUMP JUMPDEST PUSH2 0x2028 DUP2 PUSH2 0x2022 DUP5 SLOAD PUSH2 0x1EA0 JUMP JUMPDEST DUP5 PUSH2 0x1FAC JUMP JUMPDEST PUSH1 0x20 DUP1 PUSH1 0x1F DUP4 GT PUSH1 0x1 DUP2 EQ PUSH2 0x205D JUMPI PUSH1 0x0 DUP5 ISZERO PUSH2 0x2045 JUMPI POP DUP6 DUP4 ADD MLOAD JUMPDEST PUSH1 0x0 NOT PUSH1 0x3 DUP7 SWAP1 SHL SHR NOT AND PUSH1 0x1 DUP6 SWAP1 SHL OR DUP6 SSTORE PUSH2 0x1FF2 JUMP JUMPDEST PUSH1 0x0 DUP6 DUP2 MSTORE PUSH1 0x20 DUP2 KECCAK256 PUSH1 0x1F NOT DUP7 AND SWAP2 JUMPDEST DUP3 DUP2 LT ISZERO PUSH2 0x208C JUMPI DUP9 DUP7 ADD MLOAD DUP3 SSTORE SWAP5 DUP5 ADD SWAP5 PUSH1 0x1 SWAP1 SWAP2 ADD SWAP1 DUP5 ADD PUSH2 0x206D JUMP JUMPDEST POP DUP6 DUP3 LT ISZERO PUSH2 0x20AA JUMPI DUP8 DUP6 ADD MLOAD PUSH1 0x0 NOT PUSH1 0x3 DUP9 SWAP1 SHL PUSH1 0xF8 AND SHR NOT AND DUP2 SSTORE JUMPDEST POP POP POP POP POP PUSH1 0x1 SWAP1 DUP2 SHL ADD SWAP1 SSTORE POP JUMP JUMPDEST DUP2 DUP4 MSTORE DUP2 DUP2 PUSH1 0x20 DUP6 ADD CALLDATACOPY POP PUSH1 0x0 DUP3 DUP3 ADD PUSH1 0x20 SWAP1 DUP2 ADD SWAP2 SWAP1 SWAP2 MSTORE PUSH1 0x1F SWAP1 SWAP2 ADD PUSH1 0x1F NOT AND SWAP1 SWAP2 ADD ADD SWAP1 JUMP JUMPDEST DUP6 DUP2 MSTORE PUSH1 0x60 PUSH1 0x20 DUP3 ADD MSTORE PUSH1 0x0 PUSH2 0x20FD PUSH1 0x60 DUP4 ADD DUP7 DUP9 PUSH2 0x20BA JUMP JUMPDEST DUP3 DUP2 SUB PUSH1 0x40 DUP5 ADD MSTORE PUSH2 0x2110 DUP2 DUP6 DUP8 PUSH2 0x20BA JUMP JUMPDEST SWAP9 SWAP8 POP POP POP POP POP POP POP POP JUMP JUMPDEST PUSH1 0x0 PUSH1 0x20 DUP3 DUP5 SUB SLT ISZERO PUSH2 0x212E JUMPI PUSH1 0x0 DUP1 REVERT JUMPDEST DUP2 MLOAD DUP1 ISZERO ISZERO DUP2 EQ PUSH2 0x1CB8 JUMPI PUSH1 0x0 DUP1 REVERT JUMPDEST DUP1 DUP3 MUL DUP2 ISZERO DUP3 DUP3 DIV DUP5 EQ OR PUSH2 0x1F03 JUMPI PUSH2 0x1F03 PUSH2 0x1EDA JUMP JUMPDEST PUSH1 0x0 DUP3 PUSH2 0x2172 JUMPI PUSH4 0x4E487B71 PUSH1 0xE0 SHL PUSH1 0x0 MSTORE PUSH1 0x12 PUSH1 0x4 MSTORE PUSH1 0x24 PUSH1 0x0 REVERT JUMPDEST POP DIV SWAP1 JUMP JUMPDEST DUP2 DUP2 SUB DUP2 DUP2 GT ISZERO PUSH2 0x1F03 JUMPI PUSH2 0x1F03 PUSH2 0x1EDA JUMP INVALID LOG2 PUSH5 0x6970667358 0x22 SLT KECCAK256 0xC6 0xC7 DUP13 0xE3 EXTCODEHASH CREATE2 DUP9 SWAP15 RETURN 0xDD 0xEE 0xFB 0xC0 DIV PUSH27 0x73B596A42653C5778CD72464887F0F891D64736F6C634300081300 CALLER "},"methodIdentifiers":{"MAX_FEE()":"bc063e1a","allWithdrawalIds(uint256)":"80cc5094","authorizeOperator(address)":"959b8c3f","authorizedOperators(address)":"181d989b","custodyWallet()":"b9f7ce95","emergencyWithdraw(address,uint256)":"95ccea67","executeDirectTransfer(address,uint256,string,string)":"c7821ade","getAllWithdrawals()":"02cafe75","getUserConsent(address)":"2980a6f5","getWithdrawalRequest(bytes32)":"3e7d48ab","grantConsent(address,uint256)":"9d15e77f","hasValidConsent(address,address,uint256)":"2e5b2b38","owner()":"8da5cb5b","pause()":"8456cb59","paused()":"5c975abb","requestWithdrawal(address,uint256,string,string)":"91440da2","revokeConsent()":"ff4c4d54","revokeOperator(address)":"fad8b32a","setCustodyWallet(address)":"47c88bbe","setWithdrawalFee(uint256)":"ac1e5025","unpause()":"3f4ba83a","userConsents(address)":"e3453c4e","withdrawalFee()":"8bc7e8c4","withdrawalRequests(bytes32)":"124b82a5"}}}}}