{
  "_format": "hh-sol-artifact-1",
  "contractName": "SimpleAutoConsentWithdrawal",
  "sourceName": "contracts/SimpleAutoConsentWithdrawal.sol",
  "abi": [
    {
      "inputs": [
        {
          "internalType": "address",
          "name": "_custodyWallet",
          "type": "address"
        }
      ],
      "stateMutability": "nonpayable",
      "type": "constructor"
    },
    {
      "anonymous": false,
      "inputs": [
        {
          "indexed": true,
          "internalType": "address",
          "name": "user",
          "type": "address"
        }
      ],
      "name": "AutoConsentDisabled",
      "type": "event"
    },
    {
      "anonymous": false,
      "inputs": [
        {
          "indexed": true,
          "internalType": "address",
          "name": "user",
          "type": "address"
        }
      ],
      "name": "AutoConsentEnabled",
      "type": "event"
    },
    {
      "anonymous": false,
      "inputs": [
        {
          "indexed": true,
          "internalType": "bytes32",
          "name": "transactionId",
          "type": "bytes32"
        },
        {
          "indexed": true,
          "internalType": "address",
          "name": "user",
          "type": "address"
        },
        {
          "indexed": true,
          "internalType": "address",
          "name": "token",
          "type": "address"
        },
        {
          "indexed": false,
          "internalType": "uint256",
          "name": "amount",
          "type": "uint256"
        },
        {
          "indexed": false,
          "internalType": "uint256",
          "name": "fee",
          "type": "uint256"
        }
      ],
      "name": "WithdrawalExecuted",
      "type": "event"
    },
    {
      "inputs": [
        {
          "internalType": "address",
          "name": "",
          "type": "address"
        }
      ],
      "name": "autoConsentEnabled",
      "outputs": [
        {
          "internalType": "bool",
          "name": "",
          "type": "bool"
        }
      ],
      "stateMutability": "view",
      "type": "function"
    },
    {
      "inputs": [],
      "name": "custodyWallet",
      "outputs": [
        {
          "internalType": "address",
          "name": "",
          "type": "address"
        }
      ],
      "stateMutability": "view",
      "type": "function"
    },
    {
      "inputs": [],
      "name": "disableAutoConsent",
      "outputs": [],
      "stateMutability": "nonpayable",
      "type": "function"
    },
    {
      "inputs": [],
      "name": "emergencyWithdraw",
      "outputs": [],
      "stateMutability": "nonpayable",
      "type": "function"
    },
    {
      "inputs": [],
      "name": "enableAutoConsent",
      "outputs": [],
      "stateMutability": "nonpayable",
      "type": "function"
    },
    {
      "inputs": [
        {
          "internalType": "bytes32",
          "name": "transactionId",
          "type": "bytes32"
        }
      ],
      "name": "getWithdrawal",
      "outputs": [
        {
          "components": [
            {
              "internalType": "address",
              "name": "user",
              "type": "address"
            },
            {
              "internalType": "address",
              "name": "token",
              "type": "address"
            },
            {
              "internalType": "uint256",
              "name": "amount",
              "type": "uint256"
            },
            {
              "internalType": "uint256",
              "name": "timestamp",
              "type": "uint256"
            },
            {
              "internalType": "bool",
              "name": "completed",
              "type": "bool"
            }
          ],
          "internalType": "struct SimpleAutoConsentWithdrawal.WithdrawalRecord",
          "name": "",
          "type": "tuple"
        }
      ],
      "stateMutability": "view",
      "type": "function"
    },
    {
      "inputs": [
        {
          "internalType": "address",
          "name": "user",
          "type": "address"
        }
      ],
      "name": "hasAutoConsent",
      "outputs": [
        {
          "internalType": "bool",
          "name": "",
          "type": "bool"
        }
      ],
      "stateMutability": "view",
      "type": "function"
    },
    {
      "inputs": [],
      "name": "owner",
      "outputs": [
        {
          "internalType": "address",
          "name": "",
          "type": "address"
        }
      ],
      "stateMutability": "view",
      "type": "function"
    },
    {
      "inputs": [],
      "name": "pause",
      "outputs": [],
      "stateMutability": "nonpayable",
      "type": "function"
    },
    {
      "inputs": [],
      "name": "paused",
      "outputs": [
        {
          "internalType": "bool",
          "name": "",
          "type": "bool"
        }
      ],
      "stateMutability": "view",
      "type": "function"
    },
    {
      "inputs": [
        {
          "internalType": "address",
          "name": "newWallet",
          "type": "address"
        }
      ],
      "name": "setCustodyWallet",
      "outputs": [],
      "stateMutability": "nonpayable",
      "type": "function"
    },
    {
      "inputs": [
        {
          "internalType": "uint256",
          "name": "newFee",
          "type": "uint256"
        }
      ],
      "name": "setWithdrawalFee",
      "outputs": [],
      "stateMutability": "nonpayable",
      "type": "function"
    },
    {
      "inputs": [],
      "name": "unpause",
      "outputs": [],
      "stateMutability": "nonpayable",
      "type": "function"
    },
    {
      "inputs": [
        {
          "internalType": "address",
          "name": "token",
          "type": "address"
        },
        {
          "internalType": "uint256",
          "name": "amount",
          "type": "uint256"
        }
      ],
      "name": "withdrawWithAutoConsent",
      "outputs": [
        {
          "internalType": "bytes32",
          "name": "",
          "type": "bytes32"
        }
      ],
      "stateMutability": "payable",
      "type": "function"
    },
    {
      "inputs": [],
      "name": "withdrawalFee",
      "outputs": [
        {
          "internalType": "uint256",
          "name": "",
          "type": "uint256"
        }
      ],
      "stateMutability": "view",
      "type": "function"
    },
    {
      "inputs": [
        {
          "internalType": "bytes32",
          "name": "",
          "type": "bytes32"
        }
      ],
      "name": "withdrawals",
      "outputs": [
        {
          "internalType": "address",
          "name": "user",
          "type": "address"
        },
        {
          "internalType": "address",
          "name": "token",
          "type": "address"
        },
        {
          "internalType": "uint256",
          "name": "amount",
          "type": "uint256"
        },
        {
          "internalType": "uint256",
          "name": "timestamp",
          "type": "uint256"
        },
        {
          "internalType": "bool",
          "name": "completed",
          "type": "bool"
        }
      ],
      "stateMutability": "view",
      "type": "function"
    },
    {
      "stateMutability": "payable",
      "type": "receive"
    }
  ],
  "bytecode": "0x60806040526003805460ff1916905534801561001a57600080fd5b50604051610d17380380610d1783398101604081905261003991610071565b60008054336001600160a01b031991821617909155600180549091166001600160a01b039290921691909117905560646002556100a1565b60006020828403121561008357600080fd5b81516001600160a01b038116811461009a57600080fd5b9392505050565b610c67806100b06000396000f3fe6080604052600436106100f75760003560e01c80638bc7e8c41161008a578063b9f7ce9511610059578063b9f7ce9514610363578063c5d9e5c114610383578063db2e21bc146103b3578063efbf64a7146103c857600080fd5b80638bc7e8c4146102025780638da5cb5b1461021857806398efa65314610250578063ac1e50251461034357600080fd5b806347c88bbe116100c657806347c88bbe1461019e5780634b4c0346146101be5780635c975abb146101d35780638456cb59146101ed57600080fd5b80630d13b8031461010357806314fb66a81461012957806322424ec5146101405780633f4ba83a1461018957600080fd5b366100fe57005b600080fd5b610116610111366004610b25565b610456565b6040519081526020015b60405180910390f35b34801561013557600080fd5b5061013e6108f6565b005b34801561014c57600080fd5b5061017961015b366004610b4f565b6001600160a01b031660009081526004602052604090205460ff1690565b6040519015158152602001610120565b34801561019557600080fd5b5061013e610935565b3480156101aa57600080fd5b5061013e6101b9366004610b4f565b61096b565b3480156101ca57600080fd5b5061013e6109b7565b3480156101df57600080fd5b506003546101799060ff1681565b3480156101f957600080fd5b5061013e6109f9565b34801561020e57600080fd5b5061011660025481565b34801561022457600080fd5b50600054610238906001600160a01b031681565b6040516001600160a01b039091168152602001610120565b34801561025c57600080fd5b506102f661026b366004610b71565b6040805160a08101825260008082526020820181905291810182905260608101829052608081019190915250600090815260056020908152604091829020825160a08101845281546001600160a01b039081168252600183015416928101929092526002810154928201929092526003820154606082015260049091015460ff161515608082015290565b604051610120919081516001600160a01b03908116825260208084015190911690820152604080830151908201526060808301519082015260809182015115159181019190915260a00190565b34801561034f57600080fd5b5061013e61035e366004610b71565b610a32565b34801561036f57600080fd5b50600154610238906001600160a01b031681565b34801561038f57600080fd5b5061017961039e366004610b4f565b60046020526000908152604090205460ff1681565b3480156103bf57600080fd5b5061013e610aa2565b3480156103d457600080fd5b506104216103e3366004610b71565b600560205260009081526040902080546001820154600283015460038401546004909401546001600160a01b03938416949390921692909160ff1685565b604080516001600160a01b0396871681529590941660208601529284019190915260608301521515608082015260a001610120565b60035460009060ff16156104a35760405162461bcd60e51b815260206004820152600f60248201526e10dbdb9d1c9858dd081c185d5cd959608a1b60448201526064015b60405180910390fd5b600082116104e45760405162461bcd60e51b815260206004820152600e60248201526d125b9d985b1a5908185b5bdd5b9d60921b604482015260640161049a565b3360009081526004602052604090205460ff166105435760405162461bcd60e51b815260206004820152601860248201527f4175746f2d636f6e73656e74206e6f7420656e61626c65640000000000000000604482015260640161049a565b6040516bffffffffffffffffffffffff1933606090811b8216602084015285901b166034820152604881018390524260688201526000906088016040516020818303038152906040528051906020012090506000612710600254856105a89190610ba0565b6105b29190610bb7565b905060006105c08286610bd9565b90506001600160a01b03861661069957843410156106185760405162461bcd60e51b8152602060048201526015602482015274125b9cdd59999a58da595b9d08115512081cd95b9d605a1b604482015260640161049a565b6001546040516001600160a01b039091169082156108fc029083906000818181858888f19350505050158015610652573d6000803e3d6000fd5b50811561069457600080546040516001600160a01b039091169184156108fc02918591818181858888f19350505050158015610692573d6000803e3d6000fd5b505b61081c565b6001546040516323b872dd60e01b81523360048201526001600160a01b0391821660248201526044810183905287918216906323b872dd906064016020604051808303816000875af11580156106f3573d6000803e3d6000fd5b505050506040513d601f19601f820116820180604052508101906107179190610bec565b6107555760405162461bcd60e51b815260206004820152600f60248201526e151c985b9cd9995c8819985a5b1959608a1b604482015260640161049a565b821561081a576000546040516323b872dd60e01b81523360048201526001600160a01b03918216602482015260448101859052908216906323b872dd906064016020604051808303816000875af11580156107b4573d6000803e3d6000fd5b505050506040513d601f19601f820116820180604052508101906107d89190610bec565b61081a5760405162461bcd60e51b8152602060048201526013602482015272119959481d1c985b9cd9995c8819985a5b1959606a1b604482015260640161049a565b505b6040805160a081018252338082526001600160a01b0389811660208085018281528587018c8152426060880190815260016080890181815260008e8152600587528b902099518a546001600160a01b0319908116918a16919091178b559451918a018054909516919097161790925551600287015551600386015591516004909401805460ff19169415159490941790935583518981529081018690529192909186917fe5665b8a9f8795037d2c8af6566f19bec599614c9cc704a87668eb9ae0904ef6910160405180910390a450909150505b92915050565b33600081815260046020526040808220805460ff19169055517f400567b507872103608c7a2521d6390697f32551544cb188fe2041b7e4bf79199190a2565b6000546001600160a01b0316331461095f5760405162461bcd60e51b815260040161049a90610c0e565b6003805460ff19169055565b6000546001600160a01b031633146109955760405162461bcd60e51b815260040161049a90610c0e565b600180546001600160a01b0319166001600160a01b0392909216919091179055565b33600081815260046020526040808220805460ff19166001179055517fbb640b66368e2940bdbedcdea92da579cfa0fb73fd41906b97e1f5b15dfade299190a2565b6000546001600160a01b03163314610a235760405162461bcd60e51b815260040161049a90610c0e565b6003805460ff19166001179055565b6000546001600160a01b03163314610a5c5760405162461bcd60e51b815260040161049a90610c0e565b6101f4811115610a9d5760405162461bcd60e51b815260206004820152600c60248201526b08ccaca40e8dede40d0d2ced60a31b604482015260640161049a565b600255565b6000546001600160a01b03163314610acc5760405162461bcd60e51b815260040161049a90610c0e565b600080546040516001600160a01b03909116914780156108fc02929091818181858888f19350505050158015610b06573d6000803e3d6000fd5b50565b80356001600160a01b0381168114610b2057600080fd5b919050565b60008060408385031215610b3857600080fd5b610b4183610b09565b946020939093013593505050565b600060208284031215610b6157600080fd5b610b6a82610b09565b9392505050565b600060208284031215610b8357600080fd5b5035919050565b634e487b7160e01b600052601160045260246000fd5b80820281158282048414176108f0576108f0610b8a565b600082610bd457634e487b7160e01b600052601260045260246000fd5b500490565b818103818111156108f0576108f0610b8a565b600060208284031215610bfe57600080fd5b81518015158114610b6a57600080fd5b6020808252600990820152682737ba1037bbb732b960b91b60408201526060019056fea264697066735822122088e74c30ecd53a65f37f4cdb6f656db92cdeb2cc00723507bb946c74c134965564736f6c63430008130033",
  "linkReferences": {},
  "deployedLinkReferences": {}
}