{
  "_format": "hh-sol-artifact-1",
  "contractName": "SimpleTokenWithdrawal",
  "sourceName": "contracts/SimpleTokenWithdrawal.sol",
  "abi": [
    {
      "inputs": [],
      "stateMutability": "nonpayable",
      "type": "constructor"
    },
    {
      "anonymous": false,
      "inputs": [
        {
          "indexed": true,
          "internalType": "uint256",
          "name": "requestId",
          "type": "uint256"
        },
        {
          "indexed": false,
          "internalType": "string",
          "name": "transactionId",
          "type": "string"
        }
      ],
      "name": "WithdrawalCompleted",
      "type": "event"
    },
    {
      "anonymous": false,
      "inputs": [
        {
          "indexed": true,
          "internalType": "uint256",
          "name": "requestId",
          "type": "uint256"
        },
        {
          "indexed": true,
          "internalType": "address",
          "name": "user",
          "type": "address"
        },
        {
          "indexed": true,
          "internalType": "address",
          "name": "token",
          "type": "address"
        },
        {
          "indexed": false,
          "internalType": "uint256",
          "name": "tokenAmount",
          "type": "uint256"
        },
        {
          "indexed": false,
          "internalType": "uint256",
          "name": "inrAmount",
          "type": "uint256"
        },
        {
          "indexed": false,
          "internalType": "uint256",
          "name": "exchangeRate",
          "type": "uint256"
        }
      ],
      "name": "WithdrawalRequested",
      "type": "event"
    },
    {
      "inputs": [],
      "name": "adminWallet",
      "outputs": [
        {
          "internalType": "address",
          "name": "",
          "type": "address"
        }
      ],
      "stateMutability": "view",
      "type": "function"
    },
    {
      "inputs": [
        {
          "internalType": "address",
          "name": "",
          "type": "address"
        }
      ],
      "name": "allowedTokens",
      "outputs": [
        {
          "internalType": "bool",
          "name": "",
          "type": "bool"
        }
      ],
      "stateMutability": "view",
      "type": "function"
    },
    {
      "inputs": [
        {
          "internalType": "address",
          "name": "token",
          "type": "address"
        },
        {
          "internalType": "uint256",
          "name": "tokenAmount",
          "type": "uint256"
        }
      ],
      "name": "calculateInrAmount",
      "outputs": [
        {
          "internalType": "uint256",
          "name": "",
          "type": "uint256"
        }
      ],
      "stateMutability": "view",
      "type": "function"
    },
    {
      "inputs": [
        {
          "internalType": "uint256",
          "name": "requestId",
          "type": "uint256"
        },
        {
          "internalType": "string",
          "name": "transactionId",
          "type": "string"
        }
      ],
      "name": "completeWithdrawal",
      "outputs": [],
      "stateMutability": "nonpayable",
      "type": "function"
    },
    {
      "inputs": [
        {
          "internalType": "address",
          "name": "token",
          "type": "address"
        },
        {
          "internalType": "uint256",
          "name": "amount",
          "type": "uint256"
        }
      ],
      "name": "emergencyWithdrawToken",
      "outputs": [],
      "stateMutability": "nonpayable",
      "type": "function"
    },
    {
      "inputs": [
        {
          "internalType": "address",
          "name": "token",
          "type": "address"
        }
      ],
      "name": "getContractBalance",
      "outputs": [
        {
          "internalType": "uint256",
          "name": "",
          "type": "uint256"
        }
      ],
      "stateMutability": "view",
      "type": "function"
    },
    {
      "inputs": [
        {
          "internalType": "address",
          "name": "user",
          "type": "address"
        }
      ],
      "name": "getUserWithdrawals",
      "outputs": [
        {
          "components": [
            {
              "internalType": "address",
              "name": "user",
              "type": "address"
            },
            {
              "internalType": "address",
              "name": "token",
              "type": "address"
            },
            {
              "internalType": "uint256",
              "name": "tokenAmount",
              "type": "uint256"
            },
            {
              "internalType": "uint256",
              "name": "inrAmount",
              "type": "uint256"
            },
            {
              "internalType": "uint256",
              "name": "exchangeRate",
              "type": "uint256"
            },
            {
              "internalType": "bool",
              "name": "completed",
              "type": "bool"
            },
            {
              "internalType": "uint256",
              "name": "timestamp",
              "type": "uint256"
            },
            {
              "internalType": "string",
              "name": "transactionId",
              "type": "string"
            }
          ],
          "internalType": "struct SimpleTokenWithdrawal.WithdrawalRequest[]",
          "name": "",
          "type": "tuple[]"
        }
      ],
      "stateMutability": "view",
      "type": "function"
    },
    {
      "inputs": [
        {
          "internalType": "uint256",
          "name": "requestId",
          "type": "uint256"
        }
      ],
      "name": "getWithdrawalRequest",
      "outputs": [
        {
          "components": [
            {
              "internalType": "address",
              "name": "user",
              "type": "address"
            },
            {
              "internalType": "address",
              "name": "token",
              "type": "address"
            },
            {
              "internalType": "uint256",
              "name": "tokenAmount",
              "type": "uint256"
            },
            {
              "internalType": "uint256",
              "name": "inrAmount",
              "type": "uint256"
            },
            {
              "internalType": "uint256",
              "name": "exchangeRate",
              "type": "uint256"
            },
            {
              "internalType": "bool",
              "name": "completed",
              "type": "bool"
            },
            {
              "internalType": "uint256",
              "name": "timestamp",
              "type": "uint256"
            },
            {
              "internalType": "string",
              "name": "transactionId",
              "type": "string"
            }
          ],
          "internalType": "struct SimpleTokenWithdrawal.WithdrawalRequest",
          "name": "",
          "type": "tuple"
        }
      ],
      "stateMutability": "view",
      "type": "function"
    },
    {
      "inputs": [],
      "name": "nextRequestId",
      "outputs": [
        {
          "internalType": "uint256",
          "name": "",
          "type": "uint256"
        }
      ],
      "stateMutability": "view",
      "type": "function"
    },
    {
      "inputs": [],
      "name": "owner",
      "outputs": [
        {
          "internalType": "address",
          "name": "",
          "type": "address"
        }
      ],
      "stateMutability": "view",
      "type": "function"
    },
    {
      "inputs": [
        {
          "internalType": "address",
          "name": "token",
          "type": "address"
        },
        {
          "internalType": "uint256",
          "name": "tokenAmount",
          "type": "uint256"
        },
        {
          "internalType": "uint256",
          "name": "expectedInrAmount",
          "type": "uint256"
        }
      ],
      "name": "requestWithdrawal",
      "outputs": [],
      "stateMutability": "payable",
      "type": "function"
    },
    {
      "inputs": [
        {
          "internalType": "address",
          "name": "_adminWallet",
          "type": "address"
        }
      ],
      "name": "setAdminWallet",
      "outputs": [],
      "stateMutability": "nonpayable",
      "type": "function"
    },
    {
      "inputs": [
        {
          "internalType": "address",
          "name": "token",
          "type": "address"
        },
        {
          "internalType": "bool",
          "name": "allowed",
          "type": "bool"
        }
      ],
      "name": "setTokenAllowed",
      "outputs": [],
      "stateMutability": "nonpayable",
      "type": "function"
    },
    {
      "inputs": [
        {
          "internalType": "address",
          "name": "",
          "type": "address"
        }
      ],
      "name": "tokenToInrRate",
      "outputs": [
        {
          "internalType": "uint256",
          "name": "",
          "type": "uint256"
        }
      ],
      "stateMutability": "view",
      "type": "function"
    },
    {
      "inputs": [
        {
          "internalType": "address",
          "name": "token",
          "type": "address"
        },
        {
          "internalType": "uint256",
          "name": "newRate",
          "type": "uint256"
        }
      ],
      "name": "updateExchangeRate",
      "outputs": [],
      "stateMutability": "nonpayable",
      "type": "function"
    },
    {
      "inputs": [
        {
          "internalType": "uint256",
          "name": "",
          "type": "uint256"
        }
      ],
      "name": "withdrawalRequests",
      "outputs": [
        {
          "internalType": "address",
          "name": "user",
          "type": "address"
        },
        {
          "internalType": "address",
          "name": "token",
          "type": "address"
        },
        {
          "internalType": "uint256",
          "name": "tokenAmount",
          "type": "uint256"
        },
        {
          "internalType": "uint256",
          "name": "inrAmount",
          "type": "uint256"
        },
        {
          "internalType": "uint256",
          "name": "exchangeRate",
          "type": "uint256"
        },
        {
          "internalType": "bool",
          "name": "completed",
          "type": "bool"
        },
        {
          "internalType": "uint256",
          "name": "timestamp",
          "type": "uint256"
        },
        {
          "internalType": "string",
          "name": "transactionId",
          "type": "string"
        }
      ],
      "stateMutability": "view",
      "type": "function"
    },
    {
      "stateMutability": "payable",
      "type": "receive"
    }
  ],
  "bytecode": "0x6080604052600160035534801561001557600080fd5b50600480546001600160a01b0319908116339081179092556005805490911690911790557fa0f45d01152fda5d7190d5c51c9fe2359279754339f8360d4b3f3caa55bf1d4a805460ff1990811660019081179092557f591a3b2777bc31889c69fb5cad740ac457874aa5ce74c0ad08912df8ad7d112c80548216831790557fde3e59ea0eeb6a65f16dd826b7bdfb53723c09ad80c81d458bbf2e138d91852380549091169091179055600260205268048dbbf2f2ecd000007f7b799a07e1ba5fbd0d0f6b60a96821f7433ab4c52f228e4a83e3605bda26e3208190557ff4f699a1ef35e64890828cc562d137cceeab28af8455567ef14b6ec385c8e4415573eeeeeeeeeeeeeeeeeeeeeeeeeeeeeeeeeeeeeeee6000526934f086f3b33b684000007f6a26712a1b2f732f4c1fd85f9d6ed8235573aaa2a79aa2bab72c2423a73a9faf55611808806101676000396000f3fe6080604052600436106100f75760003560e01c80636a84a9851161008a578063ae48565111610059578063ae485651146102ba578063e38e6efc146102e7578063e502eb6814610307578063e744092e1461033457600080fd5b80636a84a985146102305780638da5cb5b14610246578063937b258114610266578063a4c3b0911461029a57600080fd5b806336b19cd7116100c657806336b19cd71461017857806343ab265f146101b557806362942c38146101e357806368c671401461021057600080fd5b8063115b512f1461010357806315f69012146101185780632d2ee26e14610138578063350829331461015857600080fd5b366100fe57005b600080fd5b6101166101113660046111aa565b610374565b005b34801561012457600080fd5b506101166101333660046111ee565b6107e3565b34801561014457600080fd5b50610116610153366004611225565b610838565b34801561016457600080fd5b5061011661017336600461124f565b61087e565b34801561018457600080fd5b50600554610198906001600160a01b031681565b6040516001600160a01b0390911681526020015b60405180910390f35b3480156101c157600080fd5b506101d56101d036600461124f565b6108ca565b6040519081526020016101ac565b3480156101ef57600080fd5b506101d56101fe36600461124f565b60026020526000908152604090205481565b34801561021c57600080fd5b506101d561022b366004611225565b61096a565b34801561023c57600080fd5b506101d560035481565b34801561025257600080fd5b50600454610198906001600160a01b031681565b34801561027257600080fd5b50610286610281366004611271565b610a7b565b6040516101ac9897969594939291906112d0565b3480156102a657600080fd5b506101166102b5366004611225565b610b5a565b3480156102c657600080fd5b506102da6102d5366004611271565b610cc1565b6040516101ac919061139e565b3480156102f357600080fd5b506101166103023660046113b1565b610dd8565b34801561031357600080fd5b5061032761032236600461124f565b610f10565b6040516101ac919061142d565b34801561034057600080fd5b5061036461034f36600461124f565b60016020526000908152604090205460ff1681565b60405190151581526020016101ac565b6001600160a01b03831660009081526001602052604090205460ff166103e15760405162461bcd60e51b815260206004820181905260248201527f546f6b656e206e6f7420616c6c6f77656420666f72207769746864726177616c60448201526064015b60405180910390fd5b600082116104315760405162461bcd60e51b815260206004820152601d60248201527f416d6f756e74206d7573742062652067726561746572207468616e203000000060448201526064016103d8565b600061043d848461096a565b9050606461044c83605f6114a5565b61045691906114bc565b8110156104b15760405162461bcd60e51b815260206004820152602360248201527f45786368616e67652072617465206368616e676564207369676e69666963616e604482015262746c7960e81b60648201526084016103d8565b6001600160a01b03841673eeeeeeeeeeeeeeeeeeeeeeeeeeeeeeeeeeeeeeee036105c3578234146105245760405162461bcd60e51b815260206004820152601960248201527f496e636f72726563742045544820616d6f756e742073656e740000000000000060448201526064016103d8565b6005546040516000916001600160a01b03169085908381818185875af1925050503d8060008114610571576040519150601f19603f3d011682016040523d82523d6000602084013e610576565b606091505b50509050806105bd5760405162461bcd60e51b8152602060048201526013602482015272115512081d1c985b9cd9995c8819985a5b1959606a1b60448201526064016103d8565b50610687565b6005546040516323b872dd60e01b81523360048201526001600160a01b0391821660248201526044810185905285918216906323b872dd906064016020604051808303816000875af115801561061d573d6000803e3d6000fd5b505050506040513d601f19601f8201168201806040525081019061064191906114de565b6106855760405162461bcd60e51b8152602060048201526015602482015274151bdad95b881d1c985b9cd9995c8819985a5b1959605a1b60448201526064016103d8565b505b6003805460009182610698836114fb565b9091555060408051610100810182523381526001600160a01b0388811660208084018281528486018b8152606086018a815260009485526002808552888620546080890190815260a089018781524260c08b019081528b518089018d5289815260e08c019081528d8a52978990529a909720895181546001600160a01b0319908116918b169190911782559551600182018054909716991698909817909455915191860191909155516003850155516004840155905160058301805460ff191691151591909117905592516006820155915192935091600782019061077d90826115b2565b5050506001600160a01b038516600081815260026020908152604091829020548251888152918201869052818301529051339184917f623e91dceabe0330dca186d702f59b391928c6957ec291d2d02b9615a8a9c1699181900360600190a45050505050565b6004546001600160a01b0316331461080d5760405162461bcd60e51b81526004016103d890611672565b6001600160a01b03919091166000908152600160205260409020805460ff1916911515919091179055565b6004546001600160a01b031633146108625760405162461bcd60e51b81526004016103d890611672565b6001600160a01b03909116600090815260026020526040902055565b6004546001600160a01b031633146108a85760405162461bcd60e51b81526004016103d890611672565b600580546001600160a01b0319166001600160a01b0392909216919091179055565b60006001600160a01b03821673eeeeeeeeeeeeeeeeeeeeeeeeeeeeeeeeeeeeeeee036108f7575047919050565b6040516370a0823160e01b81523060048201526001600160a01b038316906370a0823190602401602060405180830381865afa15801561093b573d6000803e3d6000fd5b505050506040513d601f19601f8201168201806040525081019061095f91906116b3565b92915050565b919050565b6001600160a01b03821660009081526001602052604081205460ff166109c65760405162461bcd60e51b8152602060048201526011602482015270151bdad95b881b9bdd08185b1b1bddd959607a1b60448201526064016103d8565b6001600160a01b03831660009081526002602052604090205480610a245760405162461bcd60e51b8152602060048201526015602482015274115e18da185b99d9481c985d19481b9bdd081cd95d605a1b60448201526064016103d8565b6001600160a01b03841673eeeeeeeeeeeeeeeeeeeeeeeeeeeeeeeeeeeeeeee03610a6d57670de0b6b3a7640000610a5b82856114a5565b610a6591906114bc565b91505061095f565b620f4240610a5b82856114a5565b600060208190529081526040902080546001820154600283015460038401546004850154600586015460068701546007880180546001600160a01b0398891699989097169795969495939460ff909316939192610ad79061152a565b80601f0160208091040260200160405190810160405280929190818152602001828054610b039061152a565b8015610b505780601f10610b2557610100808354040283529160200191610b50565b820191906000526020600020905b815481529060010190602001808311610b3357829003601f168201915b5050505050905088565b6004546001600160a01b03163314610b845760405162461bcd60e51b81526004016103d890611672565b6001600160a01b03821673eeeeeeeeeeeeeeeeeeeeeeeeeeeeeeeeeeeeeeee03610c48576004546040516000916001600160a01b03169083908381818185875af1925050503d8060008114610bf5576040519150601f19603f3d011682016040523d82523d6000602084013e610bfa565b606091505b5050905080610c435760405162461bcd60e51b8152602060048201526015602482015274115512081dda5d1a191c985dd85b0819985a5b1959605a1b60448201526064016103d8565b505050565b6004805460405163a9059cbb60e01b81526001600160a01b03918216928101929092526024820183905283169063a9059cbb906044016020604051808303816000875af1158015610c9d573d6000803e3d6000fd5b505050506040513d601f19601f82011682018060405250810190610c4391906114de565b610cc961113a565b6000828152602081815260409182902082516101008101845281546001600160a01b039081168252600183015416928101929092526002810154928201929092526003820154606082015260048201546080820152600582015460ff16151560a0820152600682015460c082015260078201805491929160e084019190610d4f9061152a565b80601f0160208091040260200160405190810160405280929190818152602001828054610d7b9061152a565b8015610dc85780601f10610d9d57610100808354040283529160200191610dc8565b820191906000526020600020905b815481529060010190602001808311610dab57829003601f168201915b5050505050815250509050919050565b6004546001600160a01b03163314610e025760405162461bcd60e51b81526004016103d890611672565b600083815260208190526040902080546001600160a01b0316610e5c5760405162461bcd60e51b8152602060048201526012602482015271125b9d985b1a59081c995c5d595cdd08125160721b60448201526064016103d8565b600581015460ff1615610eb15760405162461bcd60e51b815260206004820152601c60248201527f5769746864726177616c20616c726561647920636f6d706c657465640000000060448201526064016103d8565b60058101805460ff1916600117905560078101610ecf8385836116cc565b50837f6233113e1d0ee9e7613f81709350bdb0e18dddf506a173a46af588800ce017d98484604051610f0292919061178d565b60405180910390a250505050565b6060600060015b600354811015610f62576000818152602081905260409020546001600160a01b03808616911603610f505781610f4c816114fb565b9250505b80610f5a816114fb565b915050610f17565b5060008167ffffffffffffffff811115610f7e57610f7e611514565b604051908082528060200260200182016040528015610fb757816020015b610fa461113a565b815260200190600190039081610f9c5790505b509050600060015b600354811015611130576000818152602081905260409020546001600160a01b0380881691160361111e576000818152602081815260409182902082516101008101845281546001600160a01b039081168252600183015416928101929092526002810154928201929092526003820154606082015260048201546080820152600582015460ff16151560a0820152600682015460c082015260078201805491929160e0840191906110709061152a565b80601f016020809104026020016040519081016040528092919081815260200182805461109c9061152a565b80156110e95780601f106110be576101008083540402835291602001916110e9565b820191906000526020600020905b8154815290600101906020018083116110cc57829003601f168201915b505050505081525050838381518110611104576111046117bc565b6020026020010181905250818061111a906114fb565b9250505b80611128816114fb565b915050610fbf565b5090949350505050565b60405180610100016040528060006001600160a01b0316815260200160006001600160a01b0316815260200160008152602001600081526020016000815260200160001515815260200160008152602001606081525090565b80356001600160a01b038116811461096557600080fd5b6000806000606084860312156111bf57600080fd5b6111c884611193565b95602085013595506040909401359392505050565b80151581146111eb57600080fd5b50565b6000806040838503121561120157600080fd5b61120a83611193565b9150602083013561121a816111dd565b809150509250929050565b6000806040838503121561123857600080fd5b61124183611193565b946020939093013593505050565b60006020828403121561126157600080fd5b61126a82611193565b9392505050565b60006020828403121561128357600080fd5b5035919050565b6000815180845260005b818110156112b057602081850181015186830182015201611294565b506000602082860101526020601f19601f83011685010191505092915050565b600061010060018060a01b03808c168452808b1660208501525088604084015287606084015286608084015285151560a08401528460c08401528060e084015261131c8184018561128a565b9b9a5050505050505050505050565b600061010060018060a01b038084511685528060208501511660208601525060408301516040850152606083015160608501526080830151608085015260a0830151151560a085015260c083015160c085015260e08301518160e08601526113958286018261128a565b95945050505050565b60208152600061126a602083018461132b565b6000806000604084860312156113c657600080fd5b83359250602084013567ffffffffffffffff808211156113e557600080fd5b818601915086601f8301126113f957600080fd5b81358181111561140857600080fd5b87602082850101111561141a57600080fd5b6020830194508093505050509250925092565b6000602080830181845280855180835260408601915060408160051b870101925083870160005b8281101561148257603f1988860301845261147085835161132b565b94509285019290850190600101611454565b5092979650505050505050565b634e487b7160e01b600052601160045260246000fd5b808202811582820484141761095f5761095f61148f565b6000826114d957634e487b7160e01b600052601260045260246000fd5b500490565b6000602082840312156114f057600080fd5b815161126a816111dd565b60006001820161150d5761150d61148f565b5060010190565b634e487b7160e01b600052604160045260246000fd5b600181811c9082168061153e57607f821691505b60208210810361155e57634e487b7160e01b600052602260045260246000fd5b50919050565b601f821115610c4357600081815260208120601f850160051c8101602086101561158b5750805b601f850160051c820191505b818110156115aa57828155600101611597565b505050505050565b815167ffffffffffffffff8111156115cc576115cc611514565b6115e0816115da845461152a565b84611564565b602080601f83116001811461161557600084156115fd5750858301515b600019600386901b1c1916600185901b1785556115aa565b600085815260208120601f198616915b8281101561164457888601518255948401946001909101908401611625565b50858210156116625787850151600019600388901b60f8161c191681555b5050505050600190811b01905550565b60208082526021908201527f4f6e6c79206f776e65722063616e2063616c6c20746869732066756e6374696f6040820152603760f91b606082015260800190565b6000602082840312156116c557600080fd5b5051919050565b67ffffffffffffffff8311156116e4576116e4611514565b6116f8836116f2835461152a565b83611564565b6000601f84116001811461172c57600085156117145750838201355b600019600387901b1c1916600186901b178355611786565b600083815260209020601f19861690835b8281101561175d578685013582556020948501946001909201910161173d565b508682101561177a5760001960f88860031b161c19848701351681555b505060018560011b0183555b5050505050565b60208152816020820152818360408301376000818301604090810191909152601f909201601f19160101919050565b634e487b7160e01b600052603260045260246000fdfea264697066735822122063cc121d7ebd4884825eea6639c7375fce213d94dae92749468eedccc58d37ad64736f6c63430008130033",
  "linkReferences": {},
  "deployedLinkReferences": {}
}